{
  "contractName": "SmartContract",
  "abi": [
    {
      "inputs": [
        {
          "components": [
            {
              "internalType": "string",
              "name": "name",
              "type": "string"
            },
            {
              "internalType": "string",
              "name": "phoneNumber",
              "type": "string"
            },
            {
              "internalType": "string",
              "name": "identityNumber",
              "type": "string"
            },
            {
              "internalType": "address",
              "name": "addr",
              "type": "address"
            }
          ],
          "internalType": "struct SmartContract.Person",
          "name": "_lessor",
          "type": "tuple"
        },
        {
          "components": [
            {
              "internalType": "string",
              "name": "name",
              "type": "string"
            },
            {
              "internalType": "string",
              "name": "phoneNumber",
              "type": "string"
            },
            {
              "internalType": "string",
              "name": "identityNumber",
              "type": "string"
            },
            {
              "internalType": "address",
              "name": "addr",
              "type": "address"
            }
          ],
          "internalType": "struct SmartContract.Person",
          "name": "_tenant",
          "type": "tuple"
        },
        {
          "components": [
            {
              "internalType": "string",
              "name": "ownerName",
              "type": "string"
            },
            {
              "internalType": "string",
              "name": "bankName",
              "type": "string"
            },
            {
              "internalType": "string",
              "name": "account",
              "type": "string"
            }
          ],
          "internalType": "struct SmartContract.BankDetails",
          "name": "_lessorBankDetails",
          "type": "tuple"
        },
        {
          "components": [
            {
              "internalType": "string",
              "name": "ownerName",
              "type": "string"
            },
            {
              "internalType": "string",
              "name": "bankName",
              "type": "string"
            },
            {
              "internalType": "string",
              "name": "account",
              "type": "string"
            }
          ],
          "internalType": "struct SmartContract.BankDetails",
          "name": "_tenantBankDetails",
          "type": "tuple"
        },
        {
          "components": [
            {
              "internalType": "string",
              "name": "houseID",
              "type": "string"
            },
            {
              "internalType": "uint256",
              "name": "deposit",
              "type": "uint256"
            },
            {
              "internalType": "uint256",
              "name": "cost",
              "type": "uint256"
            },
            {
              "internalType": "uint256",
              "name": "startDate",
              "type": "uint256"
            },
            {
              "internalType": "uint256",
              "name": "period",
              "type": "uint256"
            },
            {
              "internalType": "uint256",
              "name": "endDate",
              "type": "uint256"
            },
            {
              "internalType": "enum SmartContract.ContractStatus",
              "name": "status",
              "type": "uint8"
            }
          ],
          "internalType": "struct SmartContract.RentalDetails",
          "name": "_rentalDetails",
          "type": "tuple"
        },
        {
          "components": [
            {
              "internalType": "address",
              "name": "signer",
              "type": "address"
            },
            {
              "internalType": "bytes32",
              "name": "messageHash",
              "type": "bytes32"
            },
            {
              "internalType": "bytes",
              "name": "signature",
              "type": "bytes"
            }
          ],
          "internalType": "struct SmartContract.Signature",
          "name": "_signature",
          "type": "tuple"
        }
      ],
      "stateMutability": "nonpayable",
      "type": "constructor"
    },
    {
      "anonymous": false,
      "inputs": [
        {
          "indexed": false,
          "internalType": "string",
          "name": "bankName",
          "type": "string"
        },
        {
          "indexed": false,
          "internalType": "string",
          "name": "account",
          "type": "string"
        },
        {
          "indexed": false,
          "internalType": "string",
          "name": "personType",
          "type": "string"
        }
      ],
      "name": "BankInfo",
      "type": "event"
    },
    {
      "anonymous": false,
      "inputs": [
        {
          "indexed": false,
          "internalType": "address",
          "name": "by",
          "type": "address"
        }
      ],
      "name": "ContractFinalized",
      "type": "event"
    },
    {
      "anonymous": false,
      "inputs": [
        {
          "indexed": false,
          "internalType": "address",
          "name": "by",
          "type": "address"
        }
      ],
      "name": "ContractTerminated",
      "type": "event"
    },
    {
      "anonymous": false,
      "inputs": [
        {
          "indexed": false,
          "internalType": "address",
          "name": "tenant",
          "type": "address"
        },
        {
          "indexed": false,
          "internalType": "uint256",
          "name": "amount",
          "type": "uint256"
        },
        {
          "indexed": false,
          "internalType": "uint256",
          "name": "paymentDate",
          "type": "uint256"
        }
      ],
      "name": "DepositPaid",
      "type": "event"
    },
    {
      "anonymous": false,
      "inputs": [
        {
          "indexed": false,
          "internalType": "string",
          "name": "name",
          "type": "string"
        },
        {
          "indexed": false,
          "internalType": "string",
          "name": "phoneNumber",
          "type": "string"
        }
      ],
      "name": "PersonInfo",
      "type": "event"
    },
    {
      "anonymous": false,
      "inputs": [
        {
          "indexed": true,
          "internalType": "address",
          "name": "tenant",
          "type": "address"
        },
        {
          "indexed": false,
          "internalType": "uint256",
          "name": "amount",
          "type": "uint256"
        },
        {
          "indexed": false,
          "internalType": "uint256",
          "name": "paymentDate",
          "type": "uint256"
        },
        {
          "indexed": false,
          "internalType": "bool",
          "name": "isLate",
          "type": "bool"
        }
      ],
      "name": "RentPaid",
      "type": "event"
    },
    {
      "anonymous": false,
      "inputs": [
        {
          "indexed": false,
          "internalType": "string",
          "name": "houseID",
          "type": "string"
        },
        {
          "indexed": false,
          "internalType": "uint256",
          "name": "deposit",
          "type": "uint256"
        },
        {
          "indexed": false,
          "internalType": "uint256",
          "name": "cost",
          "type": "uint256"
        },
        {
          "indexed": false,
          "internalType": "uint256",
          "name": "startDate",
          "type": "uint256"
        },
        {
          "indexed": false,
          "internalType": "uint256",
          "name": "period",
          "type": "uint256"
        },
        {
          "indexed": false,
          "internalType": "uint256",
          "name": "endDate",
          "type": "uint256"
        }
      ],
      "name": "RentalInfo",
      "type": "event"
    },
    {
      "anonymous": false,
      "inputs": [
        {
          "indexed": true,
          "internalType": "address",
          "name": "tenant",
          "type": "address"
        }
      ],
      "name": "TerminationRequestedByTenant",
      "type": "event"
    },
    {
      "inputs": [],
      "name": "contractSignature",
      "outputs": [
        {
          "internalType": "address",
          "name": "signer",
          "type": "address"
        },
        {
          "internalType": "bytes32",
          "name": "messageHash",
          "type": "bytes32"
        },
        {
          "internalType": "bytes",
          "name": "signature",
          "type": "bytes"
        }
      ],
      "stateMutability": "view",
      "type": "function",
      "constant": true
    },
    {
      "inputs": [],
      "name": "contractSignedDate",
      "outputs": [
        {
          "internalType": "uint256",
          "name": "",
          "type": "uint256"
        }
      ],
      "stateMutability": "view",
      "type": "function",
      "constant": true
    },
    {
      "inputs": [],
      "name": "depositPaid",
      "outputs": [
        {
          "internalType": "bool",
          "name": "",
          "type": "bool"
        }
      ],
      "stateMutability": "view",
      "type": "function",
      "constant": true
    },
    {
      "inputs": [],
      "name": "depositPaymentDate",
      "outputs": [
        {
          "internalType": "uint256",
          "name": "",
          "type": "uint256"
        }
      ],
      "stateMutability": "view",
      "type": "function",
      "constant": true
    },
    {
      "inputs": [
        {
          "internalType": "address",
          "name": "",
          "type": "address"
        }
      ],
      "name": "isBankAccountLinked",
      "outputs": [
        {
          "internalType": "bool",
          "name": "",
          "type": "bool"
        }
      ],
      "stateMutability": "view",
      "type": "function",
      "constant": true
    },
    {
      "inputs": [],
      "name": "isFinalized",
      "outputs": [
        {
          "internalType": "bool",
          "name": "",
          "type": "bool"
        }
      ],
      "stateMutability": "view",
      "type": "function",
      "constant": true
    },
    {
      "inputs": [],
      "name": "lessor",
      "outputs": [
        {
          "internalType": "string",
          "name": "name",
          "type": "string"
        },
        {
          "internalType": "string",
          "name": "phoneNumber",
          "type": "string"
        },
        {
          "internalType": "string",
          "name": "identityNumber",
          "type": "string"
        },
        {
          "internalType": "address",
          "name": "addr",
          "type": "address"
        }
      ],
      "stateMutability": "view",
      "type": "function",
      "constant": true
    },
    {
      "inputs": [],
      "name": "lessorBankDetails",
      "outputs": [
        {
          "internalType": "string",
          "name": "ownerName",
          "type": "string"
        },
        {
          "internalType": "string",
          "name": "bankName",
          "type": "string"
        },
        {
          "internalType": "string",
          "name": "account",
          "type": "string"
        }
      ],
      "stateMutability": "view",
      "type": "function",
      "constant": true
    },
    {
      "inputs": [],
      "name": "rentalDetails",
      "outputs": [
        {
          "internalType": "string",
          "name": "houseID",
          "type": "string"
        },
        {
          "internalType": "uint256",
          "name": "deposit",
          "type": "uint256"
        },
        {
          "internalType": "uint256",
          "name": "cost",
          "type": "uint256"
        },
        {
          "internalType": "uint256",
          "name": "startDate",
          "type": "uint256"
        },
        {
          "internalType": "uint256",
          "name": "period",
          "type": "uint256"
        },
        {
          "internalType": "uint256",
          "name": "endDate",
          "type": "uint256"
        },
        {
          "internalType": "enum SmartContract.ContractStatus",
          "name": "status",
          "type": "uint8"
        }
      ],
      "stateMutability": "view",
      "type": "function",
      "constant": true
    },
    {
      "inputs": [],
      "name": "tenant",
      "outputs": [
        {
          "internalType": "string",
          "name": "name",
          "type": "string"
        },
        {
          "internalType": "string",
          "name": "phoneNumber",
          "type": "string"
        },
        {
          "internalType": "string",
          "name": "identityNumber",
          "type": "string"
        },
        {
          "internalType": "address",
          "name": "addr",
          "type": "address"
        }
      ],
      "stateMutability": "view",
      "type": "function",
      "constant": true
    },
    {
      "inputs": [],
      "name": "tenantBankDetails",
      "outputs": [
        {
          "internalType": "string",
          "name": "ownerName",
          "type": "string"
        },
        {
          "internalType": "string",
          "name": "bankName",
          "type": "string"
        },
        {
          "internalType": "string",
          "name": "account",
          "type": "string"
        }
      ],
      "stateMutability": "view",
      "type": "function",
      "constant": true
    },
    {
      "inputs": [],
      "name": "terminationRequestedByTenant",
      "outputs": [
        {
          "internalType": "bool",
          "name": "",
          "type": "bool"
        }
      ],
      "stateMutability": "view",
      "type": "function",
      "constant": true
    },
    {
      "inputs": [],
      "name": "activateContract",
      "outputs": [],
      "stateMutability": "nonpayable",
      "type": "function"
    },
    {
      "inputs": [
        {
          "internalType": "uint256",
          "name": "_contractSignedDate",
          "type": "uint256"
        }
      ],
      "name": "setContractSignedDate",
      "outputs": [],
      "stateMutability": "nonpayable",
      "type": "function"
    },
    {
      "inputs": [
        {
          "internalType": "uint256",
          "name": "_endDate",
          "type": "uint256"
        }
      ],
      "name": "setEndDate",
      "outputs": [],
      "stateMutability": "nonpayable",
      "type": "function"
    },
    {
      "inputs": [
        {
          "internalType": "uint256",
          "name": "newEndDate",
          "type": "uint256"
        }
      ],
      "name": "setEndDate2",
      "outputs": [],
      "stateMutability": "nonpayable",
      "type": "function"
    },
    {
      "inputs": [],
      "name": "getStatus",
      "outputs": [
        {
          "internalType": "enum SmartContract.ContractStatus",
          "name": "",
          "type": "uint8"
        }
      ],
      "stateMutability": "view",
      "type": "function",
      "constant": true
    },
    {
      "inputs": [
        {
          "internalType": "bytes32",
          "name": "messageHash",
          "type": "bytes32"
        },
        {
          "internalType": "bytes",
          "name": "signature",
          "type": "bytes"
        }
      ],
      "name": "verifysignature",
      "outputs": [
        {
          "internalType": "address",
          "name": "",
          "type": "address"
        }
      ],
      "stateMutability": "pure",
      "type": "function",
      "constant": true
    },
    {
      "inputs": [
        {
          "internalType": "bytes32",
          "name": "messageHash",
          "type": "bytes32"
        },
        {
          "internalType": "bytes",
          "name": "signature",
          "type": "bytes"
        }
      ],
      "name": "signContract",
      "outputs": [],
      "stateMutability": "nonpayable",
      "type": "function"
    },
    {
      "inputs": [],
      "name": "getContractDetails",
      "outputs": [
        {
          "components": [
            {
              "internalType": "string",
              "name": "name",
              "type": "string"
            },
            {
              "internalType": "string",
              "name": "phoneNumber",
              "type": "string"
            },
            {
              "internalType": "string",
              "name": "identityNumber",
              "type": "string"
            },
            {
              "internalType": "address",
              "name": "addr",
              "type": "address"
            }
          ],
          "internalType": "struct SmartContract.Person",
          "name": "",
          "type": "tuple"
        },
        {
          "components": [
            {
              "internalType": "string",
              "name": "name",
              "type": "string"
            },
            {
              "internalType": "string",
              "name": "phoneNumber",
              "type": "string"
            },
            {
              "internalType": "string",
              "name": "identityNumber",
              "type": "string"
            },
            {
              "internalType": "address",
              "name": "addr",
              "type": "address"
            }
          ],
          "internalType": "struct SmartContract.Person",
          "name": "",
          "type": "tuple"
        },
        {
          "components": [
            {
              "internalType": "string",
              "name": "houseID",
              "type": "string"
            },
            {
              "internalType": "uint256",
              "name": "deposit",
              "type": "uint256"
            },
            {
              "internalType": "uint256",
              "name": "cost",
              "type": "uint256"
            },
            {
              "internalType": "uint256",
              "name": "startDate",
              "type": "uint256"
            },
            {
              "internalType": "uint256",
              "name": "period",
              "type": "uint256"
            },
            {
              "internalType": "uint256",
              "name": "endDate",
              "type": "uint256"
            },
            {
              "internalType": "enum SmartContract.ContractStatus",
              "name": "status",
              "type": "uint8"
            }
          ],
          "internalType": "struct SmartContract.RentalDetails",
          "name": "",
          "type": "tuple"
        }
      ],
      "stateMutability": "view",
      "type": "function",
      "constant": true
    },
    {
      "inputs": [],
      "name": "getLessorInfo",
      "outputs": [
        {
          "internalType": "string",
          "name": "",
          "type": "string"
        },
        {
          "internalType": "string",
          "name": "",
          "type": "string"
        },
        {
          "internalType": "string",
          "name": "",
          "type": "string"
        },
        {
          "internalType": "address",
          "name": "",
          "type": "address"
        },
        {
          "components": [
            {
              "internalType": "string",
              "name": "ownerName",
              "type": "string"
            },
            {
              "internalType": "string",
              "name": "bankName",
              "type": "string"
            },
            {
              "internalType": "string",
              "name": "account",
              "type": "string"
            }
          ],
          "internalType": "struct SmartContract.BankDetails",
          "name": "",
          "type": "tuple"
        }
      ],
      "stateMutability": "view",
      "type": "function",
      "constant": true
    },
    {
      "inputs": [],
      "name": "getTenantInfo",
      "outputs": [
        {
          "internalType": "string",
          "name": "",
          "type": "string"
        },
        {
          "internalType": "string",
          "name": "",
          "type": "string"
        },
        {
          "internalType": "string",
          "name": "",
          "type": "string"
        },
        {
          "internalType": "address",
          "name": "",
          "type": "address"
        },
        {
          "components": [
            {
              "internalType": "string",
              "name": "ownerName",
              "type": "string"
            },
            {
              "internalType": "string",
              "name": "bankName",
              "type": "string"
            },
            {
              "internalType": "string",
              "name": "account",
              "type": "string"
            }
          ],
          "internalType": "struct SmartContract.BankDetails",
          "name": "",
          "type": "tuple"
        }
      ],
      "stateMutability": "view",
      "type": "function",
      "constant": true
    },
    {
      "inputs": [],
      "name": "requestTermination",
      "outputs": [],
      "stateMutability": "nonpayable",
      "type": "function"
    },
    {
      "inputs": [
        {
          "internalType": "bool",
          "name": "agreementReached",
          "type": "bool"
        }
      ],
      "name": "approveTermination",
      "outputs": [],
      "stateMutability": "nonpayable",
      "type": "function"
    },
    {
      "inputs": [],
      "name": "payDeposit",
      "outputs": [],
      "stateMutability": "payable",
      "type": "function",
      "payable": true
    },
    {
      "inputs": [],
      "name": "payRent",
      "outputs": [],
      "stateMutability": "payable",
      "type": "function",
      "payable": true
    },
    {
      "inputs": [],
      "name": "isRentLate",
      "outputs": [
        {
          "internalType": "bool",
          "name": "",
          "type": "bool"
        }
      ],
      "stateMutability": "view",
      "type": "function",
      "constant": true
    },
    {
      "inputs": [
        {
          "internalType": "uint256",
          "name": "_newStartDate",
          "type": "uint256"
        },
        {
          "internalType": "uint256",
          "name": "_newPeriod",
          "type": "uint256"
        },
        {
          "internalType": "uint256",
          "name": "_newRent",
          "type": "uint256"
        }
      ],
      "name": "renewContract",
      "outputs": [],
      "stateMutability": "nonpayable",
      "type": "function"
    },
    {
      "inputs": [],
      "name": "finalizeContract",
      "outputs": [],
      "stateMutability": "nonpayable",
      "type": "function"
    }
  ],
  "bytecode": "0x60806040523480156200001157600080fd5b506040516200350d3803806200350d8339810160408190526200003491620006cd565b85518051879160009162000050918391602090910190620002c0565b5060208281015180516200006b9260018501920190620002c0565b506040820151805162000089916002840191602090910190620002c0565b5060609190910151600390910180546001600160a01b0319166001600160a01b03909216919091179055845180518691600491620000cf918391602090910190620002c0565b506020828101518051620000ea9260018501920190620002c0565b506040820151805162000108916002840191602090910190620002c0565b5060609190910151600390910180546001600160a01b0319166001600160a01b039092169190911790558351805185916008916200014e918391602090910190620002c0565b506020828101518051620001699260018501920190620002c0565b506040820151805162000187916002840191602090910190620002c0565b505083518051859250600b91620001a491839160200190620002c0565b506020828101518051620001bf9260018501920190620002c0565b5060408201518051620001dd916002840191602090910190620002c0565b505082518051849250600e91620001fa91839160200190620002c0565b506020820151816001015560408201518160020155606082015181600301556080820151816004015560a0820151816005015560c08201518160060160006101000a81548160ff021916908360028111156200026657634e487b7160e01b600052602160045260246000fd5b0217905550508151601580546001600160a01b0319166001600160a01b0390921691909117815560208084015160165560408401518051859450620002b0926017920190620002c0565b509050505050505050506200084c565b828054620002ce90620007f9565b90600052602060002090601f016020900481019282620002f257600085556200033d565b82601f106200030d57805160ff19168380011785556200033d565b828001600101855582156200033d579182015b828111156200033d57825182559160200191906001019062000320565b506200034b9291506200034f565b5090565b5b808211156200034b576000815560010162000350565b60006001600160401b0383111562000382576200038262000836565b602062000398601f8501601f19168201620007cd565b9150838252848484011115620003ad57600080fd5b60005b84811015620003cb57838101518382018301528101620003b0565b84811115620003dd5760008286850101525b50509392505050565b80516001600160a01b0381168114620003fe57600080fd5b919050565b805160038110620003fe57600080fd5b600082601f83011262000424578081fd5b620004358383516020850162000366565b9392505050565b6000606082840312156200044e578081fd5b604051606081016001600160401b03808211838310171562000474576200047462000836565b8160405282935084519150808211156200048d57600080fd5b6200049b8683870162000413565b83526020850151915080821115620004b257600080fd5b620004c08683870162000413565b60208401526040850151915080821115620004da57600080fd5b50620004e98582860162000413565b6040830152505092915050565b60006080828403121562000508578081fd5b620005146080620007cd565b82519091506001600160401b03808211156200052f57600080fd5b6200053d8583860162000413565b835260208401519150808211156200055457600080fd5b620005628583860162000413565b602084015260408401519150808211156200057c57600080fd5b506200058b8482850162000413565b6040830152506200059f60608301620003e6565b606082015292915050565b600060e08284031215620005bc578081fd5b620005c860e0620007cd565b82519091506001600160401b03811115620005e257600080fd5b620005f08482850162000413565b8252506020820151602082015260408201516040820152606082015160608201526080820151608082015260a082015160a08201526200063360c0830162000403565b60c082015292915050565b60006060828403121562000650578081fd5b604051606081016001600160401b03808211838310171562000676576200067662000836565b816040528293506200068885620003e6565b8352602085015160208401526040850151915080821115620006a957600080fd5b508301601f81018513620006bc57600080fd5b620004e98582516020840162000366565b60008060008060008060c08789031215620006e6578182fd5b86516001600160401b0380821115620006fd578384fd5b6200070b8a838b01620004f6565b9750602089015191508082111562000721578384fd5b6200072f8a838b01620004f6565b9650604089015191508082111562000745578384fd5b620007538a838b016200043c565b9550606089015191508082111562000769578384fd5b620007778a838b016200043c565b945060808901519150808211156200078d578384fd5b6200079b8a838b01620005aa565b935060a0890151915080821115620007b1578283fd5b50620007c089828a016200063e565b9150509295509295509295565b6040518181016001600160401b0381118282101715620007f157620007f162000836565b604052919050565b6002810460018216806200080e57607f821691505b602082108114156200083057634e487b7160e01b600052602260045260246000fd5b50919050565b634e487b7160e01b600052604160045260246000fd5b612cb1806200085c6000396000f3fe6080604052600436106101c25760003560e01c80638b2c8bea116100f7578063b6fada2411610095578063f0c7ead811610064578063f0c7ead81461046f578063f52872a514610484578063f5a3182b146104b1578063f7f119fd146104c6576101c2565b8063b6fada24146103f9578063cd86e1c71461040e578063cee2f35d14610436578063ef3ab3301461045a576101c2565b806393ce9fc2116100d157806393ce9fc2146103885780639dfc9117146103a8578063a709c4fe146103cc578063adf07791146103d4576101c2565b80638b2c8bea146103495780638d4e40831461035e5780638fda356d14610373576101c2565b806348f411991161016457806352f06b451161013e57806352f06b45146102f357806353544afe146103175780635c274b861461032c5780636e82725d14610334576101c2565b806348f41199146102ab578063492189131461024b5780634e69d560146102d1576101c2565b806328c5cf0a116101a057806328c5cf0a146102365780633784f0001461024b57806341f5e7291461026b57806346406f7c1461028b576101c2565b80630d47b262146101c757806326064b9d146101f25780632617064b14610214575b600080fd5b3480156101d357600080fd5b506101dc6104e6565b6040516101e99190612b79565b60405180910390f35b3480156101fe57600080fd5b5061021261020d366004612107565b6104ec565b005b34801561022057600080fd5b5061022961054c565b6040516101e99190612324565b34801561024257600080fd5b50610212610555565b34801561025757600080fd5b50610212610266366004612107565b6106bd565b34801561027757600080fd5b50610229610286366004612013565b610714565b34801561029757600080fd5b506102126102a636600461203a565b610729565b3480156102b757600080fd5b506102c0610921565b6040516101e99594939291906123f1565b3480156102dd57600080fd5b506102e6610cc4565b6040516101e9919061234d565b3480156102ff57600080fd5b50610308610ccd565b6040516101e99392919061235b565b34801561032357600080fd5b50610212610e7b565b610212610f6e565b34801561034057600080fd5b506102c061113a565b34801561035557600080fd5b50610229611170565b34801561036a57600080fd5b506102296111c8565b34801561037f57600080fd5b506102126111d7565b34801561039457600080fd5b506102126103a336600461211f565b61122a565b3480156103b457600080fd5b506103bd611327565b6040516101e993929190612ae6565b610212611826565b3480156103e057600080fd5b506103e9611a0b565b6040516101e9949392919061239e565b34801561040557600080fd5b506101dc611bc8565b34801561041a57600080fd5b50610423611bce565b6040516101e99796959493929190612496565b34801561044257600080fd5b5061044b611c8a565b6040516101e9939291906122d3565b34801561046657600080fd5b50610229611cac565b34801561047b57600080fd5b50610308611cba565b34801561049057600080fd5b506104a461049f36600461205a565b611cc9565b6040516101e991906122bf565b3480156104bd57600080fd5b506103e9611d63565b3480156104d257600080fd5b506102126104e136600461205a565b611d72565b601b5481565b6003546001600160a01b031661051d5760405162461bcd60e51b8152600401610514906127df565b60405180910390fd5b6003546001600160a01b031633146105475760405162461bcd60e51b81526004016105149061262d565b601a55565b60185460ff1681565b6003546001600160a01b031661057d5760405162461bcd60e51b8152600401610514906127df565b6003546001600160a01b031633146105a75760405162461bcd60e51b81526004016105149061262d565b600260145460ff1660028111156105ce57634e487b7160e01b600052602160045260246000fd5b146105eb5760405162461bcd60e51b8152600401610514906126b8565b60185462010000900460ff16156106145760405162461bcd60e51b8152600401610514906125f6565b6018805462ff00001916620100001790554715610666576003546040516001600160a01b03909116904780156108fc02916000818181858888f19350505050158015610664573d6000803e3d6000fd5b505b47156106845760405162461bcd60e51b8152600401610514906125a1565b7fb98f67bdd0a92cc7db5f10e0b5a34c08efead3520631067a87b9dc7cfe7f2f84336040516106b391906122bf565b60405180910390a1565b6003546001600160a01b03166106e55760405162461bcd60e51b8152600401610514906127df565b6003546001600160a01b0316331461070f5760405162461bcd60e51b81526004016105149061262d565b601355565b60196020526000908152604090205460ff1681565b6003546001600160a01b03166107515760405162461bcd60e51b8152600401610514906127df565b6003546001600160a01b0316331461077b5760405162461bcd60e51b81526004016105149061262d565b60185460ff1661079d5760405162461bcd60e51b815260040161051490612675565b600160145460ff1660028111156107c457634e487b7160e01b600052602160045260246000fd5b146107e15760405162461bcd60e51b81526004016105149061294d565b60135442116108025760405162461bcd60e51b8152600401610514906126fa565b80806108135750610811611170565b155b61082f5760405162461bcd60e51b81526004016105149061286a565b6014805460ff19908116600217909155601880549091169055610850611170565b15801561085a5750805b156108e757600754600f546040516001600160a01b039092169181156108fc0291906000818181858888f1935050505015801561089b573d6000803e3d6000fd5b50600754600f546040517f86e2ccfbb89118d61004040ebadc692938260eae74726facf02838e9de26b8fd926108de926001600160a01b03909116914290612303565b60405180910390a15b7f9d7e11b7ee517fc092f4a904e8eac7b469444955f9a0c9e1cb4644be70b771f63360405161091691906122bf565b60405180910390a150565b60608060606000610930611f66565b6003546000805490916001916002916001600160a01b031690600890859061095790612c14565b80601f016020809104026020016040519081016040528092919081815260200182805461098390612c14565b80156109d05780601f106109a5576101008083540402835291602001916109d0565b820191906000526020600020905b8154815290600101906020018083116109b357829003601f168201915b505050505094508380546109e390612c14565b80601f0160208091040260200160405190810160405280929190818152602001828054610a0f90612c14565b8015610a5c5780601f10610a3157610100808354040283529160200191610a5c565b820191906000526020600020905b815481529060010190602001808311610a3f57829003601f168201915b50505050509350828054610a6f90612c14565b80601f0160208091040260200160405190810160405280929190818152602001828054610a9b90612c14565b8015610ae85780601f10610abd57610100808354040283529160200191610ae8565b820191906000526020600020905b815481529060010190602001808311610acb57829003601f168201915b5050505050925080604051806060016040529081600082018054610b0b90612c14565b80601f0160208091040260200160405190810160405280929190818152602001828054610b3790612c14565b8015610b845780601f10610b5957610100808354040283529160200191610b84565b820191906000526020600020905b815481529060010190602001808311610b6757829003601f168201915b50505050508152602001600182018054610b9d90612c14565b80601f0160208091040260200160405190810160405280929190818152602001828054610bc990612c14565b8015610c165780601f10610beb57610100808354040283529160200191610c16565b820191906000526020600020905b815481529060010190602001808311610bf957829003601f168201915b50505050508152602001600282018054610c2f90612c14565b80601f0160208091040260200160405190810160405280929190818152602001828054610c5b90612c14565b8015610ca85780601f10610c7d57610100808354040283529160200191610ca8565b820191906000526020600020905b815481529060010190602001808311610c8b57829003601f168201915b5050505050815250509050945094509450945094509091929394565b60145460ff1690565b600880548190610cdc90612c14565b80601f0160208091040260200160405190810160405280929190818152602001828054610d0890612c14565b8015610d555780601f10610d2a57610100808354040283529160200191610d55565b820191906000526020600020905b815481529060010190602001808311610d3857829003601f168201915b505050505090806001018054610d6a90612c14565b80601f0160208091040260200160405190810160405280929190818152602001828054610d9690612c14565b8015610de35780601f10610db857610100808354040283529160200191610de3565b820191906000526020600020905b815481529060010190602001808311610dc657829003601f168201915b505050505090806002018054610df890612c14565b80601f0160208091040260200160405190810160405280929190818152602001828054610e2490612c14565b8015610e715780601f10610e4657610100808354040283529160200191610e71565b820191906000526020600020905b815481529060010190602001808311610e5457829003601f168201915b5050505050905083565b6007546001600160a01b0316610ea35760405162461bcd60e51b815260040161051490612a83565b6007546001600160a01b03163314610ecd5760405162461bcd60e51b815260040161051490612a04565b600160145460ff166002811115610ef457634e487b7160e01b600052602160045260246000fd5b14610f115760405162461bcd60e51b81526004016105149061294d565b60185460ff1615610f345760405162461bcd60e51b815260040161051490612761565b6018805460ff1916600117905560405133907ff5abecc9b9a13615614d5ae467446c26bc3286bc60464406f779d6826ed46e4890600090a2565b6007546001600160a01b0316610f965760405162461bcd60e51b815260040161051490612a83565b6007546001600160a01b03163314610fc05760405162461bcd60e51b815260040161051490612a04565b600160145460ff166002811115610fe757634e487b7160e01b600052602160045260246000fd5b146110045760405162461bcd60e51b81526004016105149061294d565b601854610100900460ff161561102c5760405162461bcd60e51b815260040161051490612a4c565b600f54341461104d5760405162461bcd60e51b8152600401610514906127a8565b600354611062906001600160a01b0316611f45565b61107e5760405162461bcd60e51b81526004016105149061280b565b601a5461108e9062069780612ba6565b4211156110ad5760405162461bcd60e51b815260040161051490612909565b6003546040516001600160a01b03909116903480156108fc02916000818181858888f193505050501580156110e6573d6000803e3d6000fd5b506018805461ff00191661010017905542601b8190556007546040517f86e2ccfbb89118d61004040ebadc692938260eae74726facf02838e9de26b8fd926106b3926001600160a01b031691349190612303565b60608060606000611149611f66565b6007546004805490916005916006916001600160a01b031690600b90859061095790612c14565b60008062278d00600e60030154426111889190612bfd565b6111929190612bbe565b905060006111a38262278d00612bde565b6011546111b09190612ba6565b90506111bf816207e900612ba6565b42119250505090565b60185462010000900460ff1681565b600060145460ff1660028111156111fe57634e487b7160e01b600052602160045260246000fd5b1461121b5760405162461bcd60e51b815260040161051490612984565b6014805460ff19166001179055565b6003546001600160a01b03166112525760405162461bcd60e51b8152600401610514906127df565b6003546001600160a01b0316331461127c5760405162461bcd60e51b81526004016105149061262d565b600160145460ff1660028111156112a357634e487b7160e01b600052602160045260246000fd5b14806112d35750600260145460ff1660028111156112d157634e487b7160e01b600052602160045260246000fd5b145b6112ef5760405162461bcd60e51b8152600401610514906128ba565b601183905560128290556113068262015180612bde565b6113109084612ba6565b60135560105550506014805460ff19166001179055565b61132f611f87565b611337611f87565b61133f611fb8565b60006004600e8260405180608001604052908160008201805461136190612c14565b80601f016020809104026020016040519081016040528092919081815260200182805461138d90612c14565b80156113da5780601f106113af576101008083540402835291602001916113da565b820191906000526020600020905b8154815290600101906020018083116113bd57829003601f168201915b505050505081526020016001820180546113f390612c14565b80601f016020809104026020016040519081016040528092919081815260200182805461141f90612c14565b801561146c5780601f106114415761010080835404028352916020019161146c565b820191906000526020600020905b81548152906001019060200180831161144f57829003601f168201915b5050505050815260200160028201805461148590612c14565b80601f01602080910402602001604051908101604052809291908181526020018280546114b190612c14565b80156114fe5780601f106114d3576101008083540402835291602001916114fe565b820191906000526020600020905b8154815290600101906020018083116114e157829003601f168201915b5050509183525050600391909101546001600160a01b0316602090910152604080516080810190915283549194509083908290829061153c90612c14565b80601f016020809104026020016040519081016040528092919081815260200182805461156890612c14565b80156115b55780601f1061158a576101008083540402835291602001916115b5565b820191906000526020600020905b81548152906001019060200180831161159857829003601f168201915b505050505081526020016001820180546115ce90612c14565b80601f01602080910402602001604051908101604052809291908181526020018280546115fa90612c14565b80156116475780601f1061161c57610100808354040283529160200191611647565b820191906000526020600020905b81548152906001019060200180831161162a57829003601f168201915b5050505050815260200160028201805461166090612c14565b80601f016020809104026020016040519081016040528092919081815260200182805461168c90612c14565b80156116d95780601f106116ae576101008083540402835291602001916116d9565b820191906000526020600020905b8154815290600101906020018083116116bc57829003601f168201915b5050509183525050600391909101546001600160a01b03166020909101526040805160e0810190915282549193509082908290829061171790612c14565b80601f016020809104026020016040519081016040528092919081815260200182805461174390612c14565b80156117905780601f1061176557610100808354040283529160200191611790565b820191906000526020600020905b81548152906001019060200180831161177357829003601f168201915b50505091835250506001820154602082015260028083015460408301526003830154606083015260048301546080830152600583015460a0830152600683015460c09092019160ff16908111156117f757634e487b7160e01b600052602160045260246000fd5b600281111561181657634e487b7160e01b600052602160045260246000fd5b9052509296919550919350915050565b6007546001600160a01b031661184e5760405162461bcd60e51b815260040161051490612a83565b6007546001600160a01b031633146118785760405162461bcd60e51b815260040161051490612a04565b600160145460ff16600281111561189f57634e487b7160e01b600052602160045260246000fd5b146118bc5760405162461bcd60e51b81526004016105149061294d565b60105434146118dd5760405162461bcd60e51b815260040161051490612731565b6003546118f2906001600160a01b0316611f45565b61190e5760405162461bcd60e51b81526004016105149061280b565b60115460009062278d00906119239042612bfd565b61192d9190612bbe565b9050600061193e8262278d00612bde565b60115461194b9190612ba6565b90508042101561196d5760405162461bcd60e51b815260040161051490612aaf565b600061197c826207e900612ba6565b600354604051429290921192506001600160a01b0316903480156108fc02916000818181858888f193505050501580156119ba573d6000803e3d6000fd5b506007546040516001600160a01b03909116907fcb70dc11469cd4dc3f0f74e286ee837743a2519cd297bf71a7f39169ad1c8a2a906119fe90349042908690612b82565b60405180910390a2505050565b600480548190611a1a90612c14565b80601f0160208091040260200160405190810160405280929190818152602001828054611a4690612c14565b8015611a935780601f10611a6857610100808354040283529160200191611a93565b820191906000526020600020905b815481529060010190602001808311611a7657829003601f168201915b505050505090806001018054611aa890612c14565b80601f0160208091040260200160405190810160405280929190818152602001828054611ad490612c14565b8015611b215780601f10611af657610100808354040283529160200191611b21565b820191906000526020600020905b815481529060010190602001808311611b0457829003601f168201915b505050505090806002018054611b3690612c14565b80601f0160208091040260200160405190810160405280929190818152602001828054611b6290612c14565b8015611baf5780601f10611b8457610100808354040283529160200191611baf565b820191906000526020600020905b815481529060010190602001808311611b9257829003601f168201915b505050600390930154919250506001600160a01b031684565b601a5481565b600e80548190611bdd90612c14565b80601f0160208091040260200160405190810160405280929190818152602001828054611c0990612c14565b8015611c565780601f10611c2b57610100808354040283529160200191611c56565b820191906000526020600020905b815481529060010190602001808311611c3957829003601f168201915b5050506001840154600285015460038601546004870154600588015460069098015496979396929550909350919060ff1687565b60158054601654601780546001600160a01b03909316939192610df890612c14565b601854610100900460ff1681565b600b80548190610cdc90612c14565b6000806000808451604114611cf05760405162461bcd60e51b8152600401610514906129cd565b6020850151925060408501519150606085015160001a905060018682858560405160008152602001604052604051611d2b949392919061232f565b6020604051602081039080840390855afa158015611d4d573d6000803e3d6000fd5b5050506020604051035193505050505b92915050565b600080548190611a1a90612c14565b6007546001600160a01b0316611d9a5760405162461bcd60e51b815260040161051490612a83565b6007546001600160a01b03163314611dc45760405162461bcd60e51b815260040161051490612a04565b6000611dd08383611cc9565b90506001600160a01b0381163314611dfa5760405162461bcd60e51b815260040161051490612842565b600060145460ff166002811115611e2157634e487b7160e01b600052602160045260246000fd5b14611e3e5760405162461bcd60e51b815260040161051490612984565b6014805460ff1916600190811790915542601a556040517fbc284bdc90a1010525c5f9ac7c8a1c57fa33b45282be8ca3b4fa9b7c5d5c52a391611e8491600091906124e2565b60405180910390a16040517fa7c963e98cf713883cca63af43134d6049a38f9b5ddb2a2a1f6597db7ba9ba9190611ec090600990600a90612554565b60405180910390a16040517fbc284bdc90a1010525c5f9ac7c8a1c57fa33b45282be8ca3b4fa9b7c5d5c52a390611efc906004906005906124e2565b60405180910390a16040517fa7c963e98cf713883cca63af43134d6049a38f9b5ddb2a2a1f6597db7ba9ba9190611f3890600c90600d90612507565b60405180910390a1505050565b6000813b6001600160a01b03831615801590611f5f575080155b9392505050565b60405180606001604052806060815260200160608152602001606081525090565b604051806080016040528060608152602001606081526020016060815260200160006001600160a01b031681525090565b6040518060e001604052806060815260200160008152602001600081526020016000815260200160008152602001600081526020016000600281111561200e57634e487b7160e01b600052602160045260246000fd5b905290565b600060208284031215612024578081fd5b81356001600160a01b0381168114611f5f578182fd5b60006020828403121561204b578081fd5b81358015158114611f5f578182fd5b6000806040838503121561206c578081fd5b8235915060208084013567ffffffffffffffff8082111561208b578384fd5b818601915086601f83011261209e578384fd5b8135818111156120b0576120b0612c65565b604051601f8201601f19168101850183811182821017156120d3576120d3612c65565b60405281815283820185018910156120e9578586fd5b81858501868301378585838301015280955050505050509250929050565b600060208284031215612118578081fd5b5035919050565b600080600060608486031215612133578081fd5b505081359360208301359350604090920135919050565b60008151808452815b8181101561216f57602081850181015186830182015201612153565b818111156121805782602083870101525b50601f01601f19169290920160200192915050565b600381106121b357634e487b7160e01b600052602160045260246000fd5b9052565b8054600090600281046001808316806121d157607f831692505b60208084108214156121f157634e487b7160e01b86526022600452602486fd5b6121fb8489612b79565b82801561220f57600181146122205761224b565b60ff1987168252828201975061224b565b61222989612b9a565b60005b878110156122455781548482015290860190840161222c565b83019850505b5050505050505092915050565b600081516080845261226d608085018261214a565b905060208301518482036020860152612286828261214a565b915050604083015184820360408601526122a0828261214a565b6060948501516001600160a01b03169590940194909452509092915050565b6001600160a01b0391909116815260200190565b600060018060a01b0385168252836020830152606060408301526122fa606083018461214a565b95945050505050565b6001600160a01b039390931683526020830191909152604082015260600190565b901515815260200190565b93845260ff9290921660208401526040830152606082015260800190565b60208101611d5d8284612195565b60006060825261236e606083018661214a565b8281036020840152612380818661214a565b90508281036040840152612394818561214a565b9695505050505050565b6000608082526123b1608083018761214a565b82810360208401526123c3818761214a565b905082810360408401526123d7818661214a565b91505060018060a01b038316606083015295945050505050565b600060a0825261240460a083018861214a565b8281036020840152612416818861214a565b9050828103604084015261242a818761214a565b905060018060a01b03851660608401528281036080840152835160608252612455606083018261214a565b90506020850151828203602084015261246e828261214a565b91505060408501518282036040840152612488828261214a565b9a9950505050505050505050565b600060e082526124a960e083018a61214a565b90508760208301528660408301528560608301528460808301528360a08301526124d660c0830184612195565b98975050505050505050565b6000604082526124f560408301856121b7565b82810360208401526122fa81856121b7565b60006060825261251a60608301856121b7565b828103602084015261252c81856121b7565b83810360409485015260068152651d195b985b9d60d21b602082015292909201949350505050565b60006060825261256760608301856121b7565b828103602084015261257981856121b7565b83810360409485015260068152653632b9b9b7b960d11b602082015292909201949350505050565b60208082526035908201527f52656d61696e696e672062616c616e63652073686f756c64206265207a65726f604082015274103132b337b932903334b730b634bd30ba34b7b71760591b606082015260800190565b6020808252601e908201527f436f6e747261637420697320616c72656164792066696e616c697a65642e0000604082015260600190565b60208082526028908201527f4f6e6c7920746865206c6573736f722063616e20706572666f726d20746869736040820152671030b1ba34b7b71760c11b606082015260800190565b60208082526023908201527f4e6f207465726d696e6174696f6e207265717565737465642062792074656e61604082015262373a1760e91b606082015260800190565b60208082526022908201527f436f6e7472616374206d757374206265207465726d696e6174656420666972736040820152613a1760f11b606082015260800190565b6020808252601e908201527f436f6e747261637420706572696f6420686173206e6f7420656e6465642e0000604082015260600190565b60208082526016908201527524b731b7b93932b1ba103932b73a1030b6b7bab73a1760511b604082015260600190565b60208082526027908201527f5465726d696e6174696f6e2068617320616c7265616479206265656e207265716040820152663ab2b9ba32b21760c91b606082015260800190565b60208082526019908201527f496e636f7272656374206465706f73697420616d6f756e742e00000000000000604082015260600190565b6020808252601290820152712632b9b9b7b91034b9903737ba1039b2ba1760711b604082015260600190565b60208082526017908201527f496e76616c6964206c6573736f7220616464726573732e000000000000000000604082015260600190565b6020808252600e908201526d24b73b30b634b21039b4b3b732b960911b604082015260600190565b60208082526030908201527f52656e74206973206f7665726475652e205465726d696e6174696f6e2063616e60408201526f3737ba1031329030b8383937bb32b21760811b606082015260800190565b6020808252602f908201527f436f6e7472616374206d75737420626520616374697665206f72207465726d6960408201526e3730ba32b2103a37903932b732bb9760891b606082015260800190565b60208082526024908201527f4465706f736974207061796d656e7420646561646c696e65206861732070617360408201526339b2b21760e11b606082015260800190565b60208082526017908201527f436f6e7472616374206973206e6f74206163746976652e000000000000000000604082015260600190565b60208082526029908201527f436f6e747261637420697320616c726561647920616374697665206f722074656040820152683936b4b730ba32b21760b91b606082015260800190565b60208082526018908201527f496e76616c6964207369676e6174757265206c656e6774680000000000000000604082015260600190565b60208082526028908201527f4f6e6c79207468652074656e616e742063616e20706572666f726d20746869736040820152671030b1ba34b7b71760c11b606082015260800190565b6020808252601e908201527f4465706f7369742068617320616c7265616479206265656e20706169642e0000604082015260600190565b6020808252601290820152713a32b730b73a1034b9903737ba1039b2ba1760711b604082015260600190565b6020808252601b908201527f4e6f74206475652079657420666f722074686973206d6f6e74682e0000000000604082015260600190565b600060608252612af96060830186612258565b8281036020840152612b0b8186612258565b90508281036040840152835160e08252612b2860e083018261214a565b90506020850151602083015260408501516040830152606085015160608301526080850151608083015260a085015160a083015260c0850151612b6e60c0840182612195565b509695505050505050565b90815260200190565b92835260208301919091521515604082015260600190565b60009081526020902090565b60008219821115612bb957612bb9612c4f565b500190565b600082612bd957634e487b7160e01b81526012600452602481fd5b500490565b6000816000190483118215151615612bf857612bf8612c4f565b500290565b600082821015612c0f57612c0f612c4f565b500390565b600281046001821680612c2857607f821691505b60208210811415612c4957634e487b7160e01b600052602260045260246000fd5b50919050565b634e487b7160e01b600052601160045260246000fd5b634e487b7160e01b600052604160045260246000fdfea2646970667358221220f4f374803eaa27b19450f34ea05b312a02ca4360281eb45914a61c7fbf0aa0df64736f6c63430008000033",
  "immutableReferences": {},
  "source": "// SPDX-License-Identifier: MIT  \r\npragma solidity ^0.8.0;\r\n\r\ncontract SmartContract {\r\n\r\n    struct Person {\r\n        string name;           //  - ID\r\n        string phoneNumber;    //  \r\n        string identityNumber; //  \r\n        address addr;          //   \r\n    }\r\n\r\n    struct BankDetails {\r\n        string ownerName;   // \r\n        string bankName;    // \r\n        string account;     // \r\n    }\r\n\r\n    struct RentalDetails {\r\n        string houseID;         //  ID \r\n        uint deposit;           // \r\n        uint cost;              // \r\n        uint startDate;         //   , Unix  \r\n        uint period;            //  \r\n        uint endDate;           //   ,   \r\n        ContractStatus status;  //      \r\n    }\r\n\r\n    //    \r\n    struct Signature {\r\n        address signer;\r\n        bytes32 messageHash;\r\n        bytes signature;\r\n    }\r\n\r\n    //     ->   \r\n    // Pending :   , Active :     , Terminated :    \r\n    enum ContractStatus { Pending, Active, Terminated }\r\n    \r\n    Person public lessor;                   // \r\n    Person public tenant;                   // \r\n    BankDetails public lessorBankDetails;   //    \r\n    BankDetails public tenantBankDetails;   //   \r\n    RentalDetails public rentalDetails;     //  \r\n    Signature public contractSignature;     //   \r\n\r\n    bool public terminationRequestedByTenant;\r\n    bool public depositPaid;\r\n    bool public isFinalized; \r\n\r\n    //   :         \r\n    event PersonInfo(\r\n        string name, string phoneNumber\r\n    );\r\n\r\n    event BankInfo(\r\n        string bankName, string account, string personType\r\n    );\r\n\r\n    event RentalInfo(\r\n        string houseID, uint deposit, uint cost, uint startDate, uint period, uint endDate\r\n    );\r\n\r\n    //      \r\n    event DepositPaid(\r\n        address tenant, uint amount, uint paymentDate \r\n    );\r\n\r\n    //    \r\n    event RentPaid(\r\n        address indexed tenant, uint amount, uint paymentDate, bool isLate\r\n    );\r\n\r\n    event ContractFinalized(address by);\r\n    event ContractTerminated(address by);\r\n\r\n    //      \r\n    event TerminationRequestedByTenant(address indexed tenant);\r\n\r\n    //      \r\n    mapping(address => bool) public isBankAccountLinked;\r\n\r\n    //  : , ,  ,  ,        \r\n    constructor(\r\n        Person memory _lessor,\r\n        Person memory _tenant,\r\n        BankDetails memory _lessorBankDetails,\r\n        BankDetails memory _tenantBankDetails,\r\n        RentalDetails memory _rentalDetails,\r\n        Signature memory _signature\r\n    ) {\r\n        lessor = _lessor;\r\n        tenant = _tenant;\r\n/*\r\n        rentalDetails = RentalDetails({\r\n            houseID : \"gaeun\",\r\n            deposit : 1 ether,\r\n            cost : 0.1 ether,\r\n            startDate : block.timestamp,\r\n            period : 365 days,\r\n            endDate : block.timestamp + 365 days,\r\n            status : ContractStatus.Pending\r\n        }); */\r\n\r\n        \r\n        lessorBankDetails = _lessorBankDetails;\r\n        tenantBankDetails = _tenantBankDetails; \r\n\r\n        rentalDetails = _rentalDetails;\r\n        // rentalDetails.endDate = _rentalDetails.startDate + (_rentalDetails.period * 1 days);\r\n\r\n        contractSignature = _signature;\r\n\r\n        // isBankAccountLinked[lessor.addr] = true;\r\n        // isBankAccountLinked[tenant.addr] = true;\r\n    }\r\n\r\n    function activateContract() public {\r\n        require(rentalDetails.status == ContractStatus.Pending, \"Contract is already active or terminated.\");\r\n        rentalDetails.status = ContractStatus.Active;\r\n    }\r\n\r\n    //  :      \r\n    function setContractSignedDate(uint _contractSignedDate) public onlyLessor {\r\n        contractSignedDate = _contractSignedDate;\r\n    }\r\n\r\n    //  :    \r\n    function setEndDate(uint _endDate) public onlyLessor {\r\n        rentalDetails.endDate = _endDate;\r\n    }\r\n\r\n    //  :    \r\n    function setEndDate2(uint newEndDate) public onlyLessor {\r\n        rentalDetails.endDate = newEndDate;\r\n    }\r\n\r\n    // ContractStatus    \r\n    function getStatus() public view returns (ContractStatus) {\r\n        return rentalDetails.status;\r\n    }\r\n\r\n\r\n\r\n\r\n    //  \r\n    modifier onlyLessor() {\r\n        require(lessor.addr != address(0), \"Lessor is not set.\");\r\n        require(msg.sender == lessor.addr, \"Only the lessor can perform this action.\");\r\n        _;\r\n    }\r\n\r\n    modifier onlyTenant() {\r\n        require(tenant.addr != address(0), \"tenant is not set.\");\r\n        require(msg.sender == tenant.addr, \"Only the tenant can perform this action.\");\r\n        _;\r\n    }\r\n\r\n    //       :         \r\n    modifier bothAccountLinked() {\r\n        require(isBankAccountLinked[lessor.addr], \"Lessor's bank account is not linked.\");\r\n        require(isBankAccountLinked[tenant.addr], \"Tenant's bank account is not linked.\");\r\n        _;\r\n    }\r\n\r\n    uint256 public contractSignedDate;   //   \r\n    uint256 public depositPaymentDate;  //    \r\n\r\n    //    \r\n    function verifysignature(bytes32 messageHash, bytes memory signature) public pure returns (address) {\r\n        bytes32 r;\r\n        bytes32 s;\r\n        uint8 v;\r\n\r\n        //   \r\n        require(signature.length == 65, \"Invalid signature length\");\r\n        assembly {\r\n            r := mload(add(signature, 32))\r\n            s := mload(add(signature, 64))\r\n            v := byte(0, mload(add(signature, 96)))\r\n        }\r\n\r\n        //    \r\n        return ecrecover(messageHash, v, r, s);\r\n    }\r\n\r\n    //      ->      \r\n    function signContract(bytes32 messageHash, bytes memory signature) public onlyTenant {\r\n        address signer = verifysignature(messageHash, signature);\r\n        require(signer == msg.sender, \"Invalid signer\");\r\n\r\n        //       \r\n        require(rentalDetails.status == ContractStatus.Pending, \"Contract is already active or terminated.\");\r\n\r\n        //    \r\n        rentalDetails.status = ContractStatus.Active;\r\n\r\n        contractSignedDate = block.timestamp;    //    \r\n\r\n        //  :     \r\n        emit PersonInfo(\r\n            lessor.name, lessor.phoneNumber\r\n        );\r\n\r\n        emit BankInfo(\r\n            lessorBankDetails.bankName, lessorBankDetails.account, \"lessor\"\r\n        );\r\n\r\n        emit PersonInfo(\r\n            tenant.name, tenant.phoneNumber\r\n        );\r\n\r\n        emit BankInfo(\r\n            tenantBankDetails.bankName, tenantBankDetails.account, \"tenant\"\r\n        );\r\n\r\n        //      \r\n    }\r\n\r\n    //   \r\n    //     \r\n    function getContractDetails() public view returns (\r\n        Person memory,\r\n        Person memory,\r\n        RentalDetails memory\r\n    ) {\r\n        return (lessor, tenant, rentalDetails);\r\n    }\r\n\r\n    //   \r\n    function getLessorInfo() public view returns (\r\n        string memory, string memory, string memory, address, BankDetails memory\r\n    ) {\r\n        return (\r\n            lessor.name, lessor.phoneNumber, lessor.identityNumber, lessor.addr, lessorBankDetails \r\n        );\r\n    }\r\n\r\n    //   \r\n    function getTenantInfo() public view returns (\r\n        string memory, string memory, string memory, address, BankDetails memory\r\n    ) {\r\n        return (\r\n            tenant.name, tenant.phoneNumber, tenant.identityNumber, tenant.addr, tenantBankDetails\r\n        );\r\n    }\r\n\r\n    // ---\r\n    //       \r\n    //       \r\n    function requestTermination() public onlyTenant {\r\n        require(rentalDetails.status == ContractStatus.Active, \"Contract is not active.\");\r\n        require(!terminationRequestedByTenant, \"Termination has already been requested.\");\r\n\r\n        terminationRequestedByTenant = true;\r\n\r\n        emit TerminationRequestedByTenant(msg.sender);\r\n    }\r\n\r\n    //   +   \r\n    function approveTermination(bool agreementReached) public onlyLessor {\r\n        require(terminationRequestedByTenant, \"No termination requested by tenant.\");\r\n        require(rentalDetails.status == ContractStatus.Active, \"Contract is not active.\");\r\n        require(block.timestamp > rentalDetails.endDate, \"Contract period has not ended.\");\r\n        require(agreementReached || !isRentLate(), \"Rent is overdue. Termination cannot be approved.\");\r\n\r\n        //       \r\n        rentalDetails.status = ContractStatus.Terminated;\r\n\r\n        //     \r\n        terminationRequestedByTenant = false;\r\n\r\n        //       \r\n        if (!isRentLate() && agreementReached) {\r\n            payable(tenant.addr).transfer(rentalDetails.deposit);\r\n\r\n            emit DepositPaid(tenant.addr, rentalDetails.deposit, block.timestamp);\r\n        } \r\n\r\n        //  \r\n        emit ContractTerminated(msg.sender);\r\n    }\r\n    // ---\r\n\r\n    //         \r\n    function isValidAddress(address addr) private view returns (bool) {\r\n        uint256 size;\r\n        assembly {\r\n            size := extcodesize(addr)\r\n        }\r\n        return addr != address(0) && size == 0;       //  address(0) ,           \r\n    }\r\n\r\n    //   \r\n    //        \r\n    function payDeposit() public payable onlyTenant {\r\n        require(rentalDetails.status == ContractStatus.Active, \"Contract is not active.\");\r\n        require(!depositPaid, \"Deposit has already been paid.\");                            //   \r\n        require(msg.value == rentalDetails.deposit, \"Incorrect deposit amount.\");           //   \r\n\r\n        //   :     \r\n        require(isValidAddress(lessor.addr), \"Invalid lessor address.\");\r\n\r\n        //    5    \r\n        require(block.timestamp <= contractSignedDate + 5 days, \"Deposit payment deadline has passed.\");\r\n\r\n        //    \r\n        payable(lessor.addr).transfer(msg.value);\r\n\r\n        depositPaid = true;                     //   \r\n        depositPaymentDate = block.timestamp;   //    \r\n\r\n        emit DepositPaid(\r\n            tenant.addr, msg.value, block.timestamp\r\n        );\r\n    }\r\n\r\n    //    ->       +          \r\n    function payRent() public payable onlyTenant {\r\n        require(rentalDetails.status == ContractStatus.Active, \"Contract is not active.\");\r\n        require(msg.value == rentalDetails.cost, \"Incorrect rent amount.\");\r\n        require(isValidAddress(lessor.addr), \"Invalid lessor address.\");\r\n\r\n        // 1(30)     \r\n        uint256 monthsElapsed = (block.timestamp - rentalDetails.startDate) / 30 days;\r\n        uint256 paymentDueDate = rentalDetails.startDate + monthsElapsed * 30 days;\r\n\r\n        //        \r\n        require(block.timestamp >= paymentDueDate, \"Not due yet for this month.\");\r\n\r\n        //    :   5    \r\n        bool latePayment = block.timestamp > paymentDueDate + 6 days;\r\n\r\n        //   \r\n        payable(lessor.addr).transfer(msg.value);\r\n\r\n        emit RentPaid(\r\n            tenant.addr, msg.value, block.timestamp, latePayment\r\n        );\r\n    }\r\n\r\n    //    \r\n    function isRentLate() public view returns (bool) {\r\n        uint256 monthsElapsed = (block.timestamp - rentalDetails.startDate) / 30 days;\r\n        uint256 nextPaymentDue = rentalDetails.startDate + monthsElapsed * 30 days;\r\n\r\n        //   5   \r\n        return block.timestamp > nextPaymentDue + 6 days; \r\n    }\r\n\r\n    //    \r\n    function renewContract(uint _newStartDate, uint _newPeriod, uint _newRent) public onlyLessor {\r\n        require(rentalDetails.status == ContractStatus.Active || rentalDetails.status == ContractStatus.Terminated, \"Contract must be active or terminated to renew.\");\r\n        rentalDetails.startDate = _newStartDate;\r\n        rentalDetails.period = _newPeriod;\r\n        rentalDetails.endDate = _newStartDate + (_newPeriod * 1 days);\r\n        rentalDetails.cost = _newRent;\r\n        rentalDetails.status = ContractStatus.Active;\r\n    }\r\n\r\n    //   ->    \r\n    function finalizeContract() public onlyLessor {\r\n        require(rentalDetails.status == ContractStatus.Terminated, \"Contract must be terminated first.\");\r\n        require(!isFinalized, \"Contract is already finalized.\");        //       \r\n\r\n        isFinalized = true;     //    \r\n        \r\n        //    \r\n        if (address(this).balance > 0) {\r\n            payable(lessor.addr).transfer(address(this).balance);\r\n        }\r\n\r\n        //  0 \r\n        require(address(this).balance == 0, \"Remaining balance should be zero before finalization.\");  \r\n\r\n        emit ContractFinalized(msg.sender); \r\n    }\r\n}\r\n",
  "sourcePath": "C:\\Users\\\\OneDrive\\\\GitHub\\FinalProject\\smart_contract\\contracts\\SmartContract.sol",
  "compiler": {
    "name": "solc",
    "version": "0.8.0+commit.c7dfd78e.Emscripten.clang"
  },
  "schemaVersion": "3.4.16",
  "updatedAt": "2024-11-21T07:47:59.441Z",
  "networkType": "ethereum",
  "devdoc": {
    "kind": "dev",
    "methods": {},
    "version": 1
  },
  "userdoc": {
    "kind": "user",
    "methods": {},
    "version": 1
  }
}