{
  "contractName": "SmartContract",
  "abi": [
    {
      "inputs": [
        {
          "components": [
            {
              "internalType": "string",
              "name": "name",
              "type": "string"
            },
            {
              "internalType": "string",
              "name": "phoneNumber",
              "type": "string"
            },
            {
              "internalType": "string",
              "name": "identityNumber",
              "type": "string"
            },
            {
              "internalType": "address",
              "name": "addr",
              "type": "address"
            }
          ],
          "internalType": "struct SmartContract.Person",
          "name": "_lessor",
          "type": "tuple"
        },
        {
          "components": [
            {
              "internalType": "string",
              "name": "name",
              "type": "string"
            },
            {
              "internalType": "string",
              "name": "phoneNumber",
              "type": "string"
            },
            {
              "internalType": "string",
              "name": "identityNumber",
              "type": "string"
            },
            {
              "internalType": "address",
              "name": "addr",
              "type": "address"
            }
          ],
          "internalType": "struct SmartContract.Person",
          "name": "_tenant",
          "type": "tuple"
        },
        {
          "components": [
            {
              "internalType": "string",
              "name": "ownerName",
              "type": "string"
            },
            {
              "internalType": "string",
              "name": "bankName",
              "type": "string"
            },
            {
              "internalType": "string",
              "name": "account",
              "type": "string"
            }
          ],
          "internalType": "struct SmartContract.BankDetails",
          "name": "_lessorBankDetails",
          "type": "tuple"
        },
        {
          "components": [
            {
              "internalType": "string",
              "name": "ownerName",
              "type": "string"
            },
            {
              "internalType": "string",
              "name": "bankName",
              "type": "string"
            },
            {
              "internalType": "string",
              "name": "account",
              "type": "string"
            }
          ],
          "internalType": "struct SmartContract.BankDetails",
          "name": "_tenantBankDetails",
          "type": "tuple"
        },
        {
          "components": [
            {
              "internalType": "string",
              "name": "houseID",
              "type": "string"
            },
            {
              "internalType": "uint256",
              "name": "deposit",
              "type": "uint256"
            },
            {
              "internalType": "uint256",
              "name": "cost",
              "type": "uint256"
            },
            {
              "internalType": "uint256",
              "name": "startDate",
              "type": "uint256"
            },
            {
              "internalType": "uint256",
              "name": "period",
              "type": "uint256"
            },
            {
              "internalType": "uint256",
              "name": "endDate",
              "type": "uint256"
            },
            {
              "internalType": "enum SmartContract.ContractStatus",
              "name": "status",
              "type": "uint8"
            }
          ],
          "internalType": "struct SmartContract.RentalDetails",
          "name": "_rentalDetails",
          "type": "tuple"
        }
      ],
      "stateMutability": "nonpayable",
      "type": "constructor"
    },
    {
      "anonymous": false,
      "inputs": [
        {
          "indexed": false,
          "internalType": "string",
          "name": "bankName",
          "type": "string"
        },
        {
          "indexed": false,
          "internalType": "string",
          "name": "account",
          "type": "string"
        },
        {
          "indexed": false,
          "internalType": "string",
          "name": "personType",
          "type": "string"
        }
      ],
      "name": "BankInfo",
      "type": "event"
    },
    {
      "anonymous": false,
      "inputs": [
        {
          "indexed": false,
          "internalType": "address",
          "name": "by",
          "type": "address"
        }
      ],
      "name": "ContractFinalized",
      "type": "event"
    },
    {
      "anonymous": false,
      "inputs": [
        {
          "indexed": false,
          "internalType": "address",
          "name": "by",
          "type": "address"
        }
      ],
      "name": "ContractTerminated",
      "type": "event"
    },
    {
      "anonymous": false,
      "inputs": [
        {
          "indexed": false,
          "internalType": "address",
          "name": "tenant",
          "type": "address"
        },
        {
          "indexed": false,
          "internalType": "uint256",
          "name": "amount",
          "type": "uint256"
        },
        {
          "indexed": false,
          "internalType": "uint256",
          "name": "paymentDate",
          "type": "uint256"
        }
      ],
      "name": "DepositPaid",
      "type": "event"
    },
    {
      "anonymous": false,
      "inputs": [
        {
          "indexed": false,
          "internalType": "string",
          "name": "name",
          "type": "string"
        },
        {
          "indexed": false,
          "internalType": "string",
          "name": "phoneNumber",
          "type": "string"
        }
      ],
      "name": "PersonInfo",
      "type": "event"
    },
    {
      "anonymous": false,
      "inputs": [
        {
          "indexed": true,
          "internalType": "address",
          "name": "tenant",
          "type": "address"
        },
        {
          "indexed": false,
          "internalType": "uint256",
          "name": "amount",
          "type": "uint256"
        },
        {
          "indexed": false,
          "internalType": "uint256",
          "name": "paymentDate",
          "type": "uint256"
        },
        {
          "indexed": false,
          "internalType": "bool",
          "name": "isLate",
          "type": "bool"
        }
      ],
      "name": "RentPaid",
      "type": "event"
    },
    {
      "anonymous": false,
      "inputs": [
        {
          "indexed": false,
          "internalType": "string",
          "name": "houseID",
          "type": "string"
        },
        {
          "indexed": false,
          "internalType": "uint256",
          "name": "deposit",
          "type": "uint256"
        },
        {
          "indexed": false,
          "internalType": "uint256",
          "name": "cost",
          "type": "uint256"
        },
        {
          "indexed": false,
          "internalType": "uint256",
          "name": "startDate",
          "type": "uint256"
        },
        {
          "indexed": false,
          "internalType": "uint256",
          "name": "period",
          "type": "uint256"
        },
        {
          "indexed": false,
          "internalType": "uint256",
          "name": "endDate",
          "type": "uint256"
        }
      ],
      "name": "RentalInfo",
      "type": "event"
    },
    {
      "anonymous": false,
      "inputs": [
        {
          "indexed": true,
          "internalType": "address",
          "name": "tenant",
          "type": "address"
        }
      ],
      "name": "TerminationRequestedByTenant",
      "type": "event"
    },
    {
      "inputs": [],
      "name": "contractSignedDate",
      "outputs": [
        {
          "internalType": "uint256",
          "name": "",
          "type": "uint256"
        }
      ],
      "stateMutability": "view",
      "type": "function",
      "constant": true
    },
    {
      "inputs": [],
      "name": "depositPaid",
      "outputs": [
        {
          "internalType": "bool",
          "name": "",
          "type": "bool"
        }
      ],
      "stateMutability": "view",
      "type": "function",
      "constant": true
    },
    {
      "inputs": [],
      "name": "depositPaymentDate",
      "outputs": [
        {
          "internalType": "uint256",
          "name": "",
          "type": "uint256"
        }
      ],
      "stateMutability": "view",
      "type": "function",
      "constant": true
    },
    {
      "inputs": [
        {
          "internalType": "address",
          "name": "",
          "type": "address"
        }
      ],
      "name": "isBankAccountLinked",
      "outputs": [
        {
          "internalType": "bool",
          "name": "",
          "type": "bool"
        }
      ],
      "stateMutability": "view",
      "type": "function",
      "constant": true
    },
    {
      "inputs": [],
      "name": "isFinalized",
      "outputs": [
        {
          "internalType": "bool",
          "name": "",
          "type": "bool"
        }
      ],
      "stateMutability": "view",
      "type": "function",
      "constant": true
    },
    {
      "inputs": [],
      "name": "lessor",
      "outputs": [
        {
          "internalType": "string",
          "name": "name",
          "type": "string"
        },
        {
          "internalType": "string",
          "name": "phoneNumber",
          "type": "string"
        },
        {
          "internalType": "string",
          "name": "identityNumber",
          "type": "string"
        },
        {
          "internalType": "address",
          "name": "addr",
          "type": "address"
        }
      ],
      "stateMutability": "view",
      "type": "function",
      "constant": true
    },
    {
      "inputs": [],
      "name": "lessorBankDetails",
      "outputs": [
        {
          "internalType": "string",
          "name": "ownerName",
          "type": "string"
        },
        {
          "internalType": "string",
          "name": "bankName",
          "type": "string"
        },
        {
          "internalType": "string",
          "name": "account",
          "type": "string"
        }
      ],
      "stateMutability": "view",
      "type": "function",
      "constant": true
    },
    {
      "inputs": [],
      "name": "lessorSigned",
      "outputs": [
        {
          "internalType": "bool",
          "name": "",
          "type": "bool"
        }
      ],
      "stateMutability": "view",
      "type": "function",
      "constant": true
    },
    {
      "inputs": [],
      "name": "rentalDetails",
      "outputs": [
        {
          "internalType": "string",
          "name": "houseID",
          "type": "string"
        },
        {
          "internalType": "uint256",
          "name": "deposit",
          "type": "uint256"
        },
        {
          "internalType": "uint256",
          "name": "cost",
          "type": "uint256"
        },
        {
          "internalType": "uint256",
          "name": "startDate",
          "type": "uint256"
        },
        {
          "internalType": "uint256",
          "name": "period",
          "type": "uint256"
        },
        {
          "internalType": "uint256",
          "name": "endDate",
          "type": "uint256"
        },
        {
          "internalType": "enum SmartContract.ContractStatus",
          "name": "status",
          "type": "uint8"
        }
      ],
      "stateMutability": "view",
      "type": "function",
      "constant": true
    },
    {
      "inputs": [],
      "name": "status",
      "outputs": [
        {
          "internalType": "enum SmartContract.ContractStatus",
          "name": "",
          "type": "uint8"
        }
      ],
      "stateMutability": "view",
      "type": "function",
      "constant": true
    },
    {
      "inputs": [],
      "name": "tenant",
      "outputs": [
        {
          "internalType": "string",
          "name": "name",
          "type": "string"
        },
        {
          "internalType": "string",
          "name": "phoneNumber",
          "type": "string"
        },
        {
          "internalType": "string",
          "name": "identityNumber",
          "type": "string"
        },
        {
          "internalType": "address",
          "name": "addr",
          "type": "address"
        }
      ],
      "stateMutability": "view",
      "type": "function",
      "constant": true
    },
    {
      "inputs": [],
      "name": "tenantBankDetails",
      "outputs": [
        {
          "internalType": "string",
          "name": "ownerName",
          "type": "string"
        },
        {
          "internalType": "string",
          "name": "bankName",
          "type": "string"
        },
        {
          "internalType": "string",
          "name": "account",
          "type": "string"
        }
      ],
      "stateMutability": "view",
      "type": "function",
      "constant": true
    },
    {
      "inputs": [],
      "name": "tenantSigned",
      "outputs": [
        {
          "internalType": "bool",
          "name": "",
          "type": "bool"
        }
      ],
      "stateMutability": "view",
      "type": "function",
      "constant": true
    },
    {
      "inputs": [],
      "name": "terminationRequestedByTenant",
      "outputs": [
        {
          "internalType": "bool",
          "name": "",
          "type": "bool"
        }
      ],
      "stateMutability": "view",
      "type": "function",
      "constant": true
    },
    {
      "inputs": [
        {
          "internalType": "uint256",
          "name": "_contractSignedDate",
          "type": "uint256"
        }
      ],
      "name": "setContractSignedDate",
      "outputs": [],
      "stateMutability": "nonpayable",
      "type": "function"
    },
    {
      "inputs": [
        {
          "internalType": "uint256",
          "name": "_endDate",
          "type": "uint256"
        }
      ],
      "name": "setEndDate",
      "outputs": [],
      "stateMutability": "nonpayable",
      "type": "function"
    },
    {
      "inputs": [
        {
          "internalType": "uint256",
          "name": "newEndDate",
          "type": "uint256"
        }
      ],
      "name": "setEndDate2",
      "outputs": [],
      "stateMutability": "nonpayable",
      "type": "function"
    },
    {
      "inputs": [],
      "name": "getStatus",
      "outputs": [
        {
          "internalType": "enum SmartContract.ContractStatus",
          "name": "",
          "type": "uint8"
        }
      ],
      "stateMutability": "view",
      "type": "function",
      "constant": true
    },
    {
      "inputs": [
        {
          "internalType": "address",
          "name": "signer",
          "type": "address"
        }
      ],
      "name": "signContractByTenant",
      "outputs": [],
      "stateMutability": "nonpayable",
      "type": "function"
    },
    {
      "inputs": [
        {
          "internalType": "address",
          "name": "signer",
          "type": "address"
        }
      ],
      "name": "signContractByLessor",
      "outputs": [],
      "stateMutability": "nonpayable",
      "type": "function"
    },
    {
      "inputs": [],
      "name": "isContractFullySigned",
      "outputs": [
        {
          "internalType": "bool",
          "name": "",
          "type": "bool"
        }
      ],
      "stateMutability": "view",
      "type": "function",
      "constant": true
    },
    {
      "inputs": [],
      "name": "activateContract",
      "outputs": [],
      "stateMutability": "nonpayable",
      "type": "function"
    },
    {
      "inputs": [],
      "name": "getContractDetails",
      "outputs": [
        {
          "components": [
            {
              "internalType": "string",
              "name": "name",
              "type": "string"
            },
            {
              "internalType": "string",
              "name": "phoneNumber",
              "type": "string"
            },
            {
              "internalType": "string",
              "name": "identityNumber",
              "type": "string"
            },
            {
              "internalType": "address",
              "name": "addr",
              "type": "address"
            }
          ],
          "internalType": "struct SmartContract.Person",
          "name": "",
          "type": "tuple"
        },
        {
          "components": [
            {
              "internalType": "string",
              "name": "name",
              "type": "string"
            },
            {
              "internalType": "string",
              "name": "phoneNumber",
              "type": "string"
            },
            {
              "internalType": "string",
              "name": "identityNumber",
              "type": "string"
            },
            {
              "internalType": "address",
              "name": "addr",
              "type": "address"
            }
          ],
          "internalType": "struct SmartContract.Person",
          "name": "",
          "type": "tuple"
        },
        {
          "components": [
            {
              "internalType": "string",
              "name": "houseID",
              "type": "string"
            },
            {
              "internalType": "uint256",
              "name": "deposit",
              "type": "uint256"
            },
            {
              "internalType": "uint256",
              "name": "cost",
              "type": "uint256"
            },
            {
              "internalType": "uint256",
              "name": "startDate",
              "type": "uint256"
            },
            {
              "internalType": "uint256",
              "name": "period",
              "type": "uint256"
            },
            {
              "internalType": "uint256",
              "name": "endDate",
              "type": "uint256"
            },
            {
              "internalType": "enum SmartContract.ContractStatus",
              "name": "status",
              "type": "uint8"
            }
          ],
          "internalType": "struct SmartContract.RentalDetails",
          "name": "",
          "type": "tuple"
        }
      ],
      "stateMutability": "view",
      "type": "function",
      "constant": true
    },
    {
      "inputs": [],
      "name": "getLessorInfo",
      "outputs": [
        {
          "internalType": "string",
          "name": "",
          "type": "string"
        },
        {
          "internalType": "string",
          "name": "",
          "type": "string"
        },
        {
          "internalType": "string",
          "name": "",
          "type": "string"
        },
        {
          "internalType": "address",
          "name": "",
          "type": "address"
        },
        {
          "components": [
            {
              "internalType": "string",
              "name": "ownerName",
              "type": "string"
            },
            {
              "internalType": "string",
              "name": "bankName",
              "type": "string"
            },
            {
              "internalType": "string",
              "name": "account",
              "type": "string"
            }
          ],
          "internalType": "struct SmartContract.BankDetails",
          "name": "",
          "type": "tuple"
        }
      ],
      "stateMutability": "view",
      "type": "function",
      "constant": true
    },
    {
      "inputs": [],
      "name": "getTenantInfo",
      "outputs": [
        {
          "internalType": "string",
          "name": "",
          "type": "string"
        },
        {
          "internalType": "string",
          "name": "",
          "type": "string"
        },
        {
          "internalType": "string",
          "name": "",
          "type": "string"
        },
        {
          "internalType": "address",
          "name": "",
          "type": "address"
        },
        {
          "components": [
            {
              "internalType": "string",
              "name": "ownerName",
              "type": "string"
            },
            {
              "internalType": "string",
              "name": "bankName",
              "type": "string"
            },
            {
              "internalType": "string",
              "name": "account",
              "type": "string"
            }
          ],
          "internalType": "struct SmartContract.BankDetails",
          "name": "",
          "type": "tuple"
        }
      ],
      "stateMutability": "view",
      "type": "function",
      "constant": true
    },
    {
      "inputs": [],
      "name": "requestTermination",
      "outputs": [],
      "stateMutability": "nonpayable",
      "type": "function"
    },
    {
      "inputs": [
        {
          "internalType": "bool",
          "name": "agreementReached",
          "type": "bool"
        }
      ],
      "name": "approveTermination",
      "outputs": [],
      "stateMutability": "nonpayable",
      "type": "function"
    },
    {
      "inputs": [],
      "name": "payDeposit",
      "outputs": [],
      "stateMutability": "payable",
      "type": "function",
      "payable": true
    },
    {
      "inputs": [],
      "name": "payRent",
      "outputs": [],
      "stateMutability": "payable",
      "type": "function",
      "payable": true
    },
    {
      "inputs": [],
      "name": "isRentLate",
      "outputs": [
        {
          "internalType": "bool",
          "name": "",
          "type": "bool"
        }
      ],
      "stateMutability": "view",
      "type": "function",
      "constant": true
    },
    {
      "inputs": [
        {
          "internalType": "uint256",
          "name": "_newStartDate",
          "type": "uint256"
        },
        {
          "internalType": "uint256",
          "name": "_newPeriod",
          "type": "uint256"
        },
        {
          "internalType": "uint256",
          "name": "_newRent",
          "type": "uint256"
        }
      ],
      "name": "renewContract",
      "outputs": [],
      "stateMutability": "nonpayable",
      "type": "function"
    },
    {
      "inputs": [],
      "name": "finalizeContract",
      "outputs": [],
      "stateMutability": "nonpayable",
      "type": "function"
    }
  ],
  "bytecode": "0x60806040523480156200001157600080fd5b506040516200321d3803806200321d8339810160408190526200003491620005df565b8451805186916001916200005091839160209091019062000279565b5060208281015180516200006b926001850192019062000279565b50604082015180516200008991600284019160209091019062000279565b5060609190910151600390910180546001600160a01b0319166001600160a01b03909216919091179055835180518591600591620000cf91839160209091019062000279565b506020828101518051620000ea926001850192019062000279565b50604082015180516200010891600284019160209091019062000279565b5060609190910151600390910180546001600160a01b0319166001600160a01b039092169190911790558251805184916009916200014e91839160209091019062000279565b50602082810151805162000169926001850192019062000279565b50604082015180516200018791600284019160209091019062000279565b505082518051849250600c91620001a49183916020019062000279565b506020828101518051620001bf926001850192019062000279565b5060408201518051620001dd91600284019160209091019062000279565b505081518051839250600f91620001fa9183916020019062000279565b506020820151816001015560408201518160020155606082015181600301556080820151816004015560a0820151816005015560c08201518160060160006101000a81548160ff021916908360028111156200026657634e487b7160e01b600052602160045260246000fd5b0217905550905050505050505062000739565b8280546200028790620006e6565b90600052602060002090601f016020900481019282620002ab5760008555620002f6565b82601f10620002c657805160ff1916838001178555620002f6565b82800160010185558215620002f6579182015b82811115620002f6578251825591602001919060010190620002d9565b506200030492915062000308565b5090565b5b8082111562000304576000815560010162000309565b80516001600160a01b03811681146200033757600080fd5b919050565b8051600381106200033757600080fd5b600082601f8301126200035d578081fd5b81516001600160401b0381111562000379576200037962000723565b60206200038f601f8301601f19168201620006ba565b8281528582848701011115620003a3578384fd5b835b83811015620003c2578581018301518282018401528201620003a5565b83811115620003d357848385840101525b5095945050505050565b600060608284031215620003ef578081fd5b604051606081016001600160401b03808211838310171562000415576200041562000723565b8160405282935084519150808211156200042e57600080fd5b6200043c868387016200034c565b835260208501519150808211156200045357600080fd5b62000461868387016200034c565b602084015260408501519150808211156200047b57600080fd5b506200048a858286016200034c565b6040830152505092915050565b600060808284031215620004a9578081fd5b620004b56080620006ba565b82519091506001600160401b0380821115620004d057600080fd5b620004de858386016200034c565b83526020840151915080821115620004f557600080fd5b62000503858386016200034c565b602084015260408401519150808211156200051d57600080fd5b506200052c848285016200034c565b60408301525062000540606083016200031f565b606082015292915050565b600060e082840312156200055d578081fd5b6200056960e0620006ba565b82519091506001600160401b038111156200058357600080fd5b62000591848285016200034c565b8252506020820151602082015260408201516040820152606082015160608201526080820151608082015260a082015160a0820152620005d460c083016200033c565b60c082015292915050565b600080600080600060a08688031215620005f7578081fd5b85516001600160401b03808211156200060e578283fd5b6200061c89838a0162000497565b9650602088015191508082111562000632578283fd5b6200064089838a0162000497565b9550604088015191508082111562000656578283fd5b6200066489838a01620003dd565b945060608801519150808211156200067a578283fd5b6200068889838a01620003dd565b935060808801519150808211156200069e578283fd5b50620006ad888289016200054b565b9150509295509295909350565b6040518181016001600160401b0381118282101715620006de57620006de62000723565b604052919050565b600281046001821680620006fb57607f821691505b602082108114156200071d57634e487b7160e01b600052602260045260246000fd5b50919050565b634e487b7160e01b600052604160045260246000fd5b612ad480620007496000396000f3fe6080604052600436106101e35760003560e01c80636e82725d11610102578063adf0779111610095578063cd86e1c711610064578063cd86e1c7146104c3578063ef3ab330146104eb578063f0c7ead814610500578063f5a3182b14610515576101e3565b8063adf077911461045f578063b15c04c514610484578063b6fada2414610499578063bdfa3870146104ae576101e3565b806393ce9fc2116100d157806393ce9fc2146103fe5780639dfc91171461041e578063a709c4fe14610442578063a86d2b7d1461044a576101e3565b80636e82725d146103aa5780638b2c8bea146103bf5780638d4e4083146103d45780638fda356d146103e9576101e3565b806341f5e7291161017a5780634e69d560116101495780634e69d5601461035457806352f06b451461036957806353544afe1461038d5780635c274b86146103a2576101e3565b806341f5e729146102ee57806346406f7c1461030e57806348f411991461032e57806349218913146102ce576101e3565b806326064b9d116101b657806326064b9d146102775780632617064b1461029757806328c5cf0a146102b95780633784f000146102ce576101e3565b8063095decac146101e85780630d47b2621461020a5780631ac9a50814610235578063200d2ed214610255575b600080fd5b3480156101f457600080fd5b50610208610203366004611fbe565b61052a565b005b34801561021657600080fd5b5061021f6105ec565b60405161022c91906129be565b60405180910390f35b34801561024157600080fd5b50610208610250366004611fbe565b6105f2565b34801561026157600080fd5b5061026a6106a4565b60405161022c919061215c565b34801561028357600080fd5b50610208610292366004612005565b6106ad565b3480156102a357600080fd5b506102ac610704565b60405161022c9190612151565b3480156102c557600080fd5b50610208610713565b3480156102da57600080fd5b506102086102e9366004612005565b610881565b3480156102fa57600080fd5b506102ac610309366004611fbe565b6108d8565b34801561031a57600080fd5b50610208610329366004611fe5565b6108ed565b34801561033a57600080fd5b50610343610aeb565b60405161022c959493929190612206565b34801561036057600080fd5b5061026a610e8e565b34801561037557600080fd5b5061037e610e97565b60405161022c93929190612170565b34801561039957600080fd5b50610208611045565b610208611142565b3480156103b657600080fd5b50610343611314565b3480156103cb57600080fd5b506102ac61134a565b3480156103e057600080fd5b506102ac6113a2565b3480156103f557600080fd5b506102086113b3565b34801561040a57600080fd5b5061020861041936600461201d565b61142a565b34801561042a57600080fd5b50610433611527565b60405161022c9392919061292b565b610208611a26565b34801561045657600080fd5b506102ac611c0b565b34801561046b57600080fd5b50610474611c19565b60405161022c94939291906121b3565b34801561049057600080fd5b506102ac611dd6565b3480156104a557600080fd5b5061021f611ddf565b3480156104ba57600080fd5b506102ac611de5565b3480156104cf57600080fd5b506104d8611e06565b60405161022c97969594939291906122ab565b3480156104f757600080fd5b506102ac611ec2565b34801561050c57600080fd5b5061037e611ed2565b34801561052157600080fd5b50610474611ee1565b6008546001600160a01b031661055b5760405162461bcd60e51b81526004016105529061282d565b60405180910390fd5b6008546001600160a01b031633146105855760405162461bcd60e51b8152600401610552906127ae565b6008546001600160a01b038281169116146105b25760405162461bcd60e51b8152600401610552906128e6565b601654610100900460ff16156105da5760405162461bcd60e51b815260040161055290612487565b506016805461ff001916610100179055565b60195481565b6004546001600160a01b031661061a5760405162461bcd60e51b8152600401610552906125a3565b6004546001600160a01b031633146106445760405162461bcd60e51b815260040161055290612383565b6004546001600160a01b038281169116146106715760405162461bcd60e51b815260040161055290612656565b60165460ff16156106945760405162461bcd60e51b81526004016105529061256c565b506016805460ff19166001179055565b60005460ff1681565b6004546001600160a01b03166106d55760405162461bcd60e51b8152600401610552906125a3565b6004546001600160a01b031633146106ff5760405162461bcd60e51b815260040161055290612383565b601855565b60165462010000900460ff1681565b6004546001600160a01b031661073b5760405162461bcd60e51b8152600401610552906125a3565b6004546001600160a01b031633146107655760405162461bcd60e51b815260040161055290612383565b600260155460ff16600281111561078c57634e487b7160e01b600052602160045260246000fd5b146107a95760405162461bcd60e51b81526004016105529061240e565b601654640100000000900460ff16156107d45760405162461bcd60e51b81526004016105529061234c565b6016805464ff000000001916640100000000179055471561082a576004546040516001600160a01b03909116904780156108fc02916000818181858888f19350505050158015610828573d6000803e3d6000fd5b505b47156108485760405162461bcd60e51b8152600401610552906122f7565b7fb98f67bdd0a92cc7db5f10e0b5a34c08efead3520631067a87b9dc7cfe7f2f8433604051610877919061211c565b60405180910390a1565b6004546001600160a01b03166108a95760405162461bcd60e51b8152600401610552906125a3565b6004546001600160a01b031633146108d35760405162461bcd60e51b815260040161055290612383565b601455565b60176020526000908152604090205460ff1681565b6004546001600160a01b03166109155760405162461bcd60e51b8152600401610552906125a3565b6004546001600160a01b0316331461093f5760405162461bcd60e51b815260040161055290612383565b60165462010000900460ff166109675760405162461bcd60e51b8152600401610552906123cb565b600160155460ff16600281111561098e57634e487b7160e01b600052602160045260246000fd5b146109ab5760405162461bcd60e51b81526004016105529061272e565b60145442116109cc5760405162461bcd60e51b815260040161055290612450565b80806109dd57506109db61134a565b155b6109f95760405162461bcd60e51b815260040161055290612606565b6015805460ff191660021790556016805462ff000019169055610a1a61134a565b158015610a245750805b15610ab1576008546010546040516001600160a01b039092169181156108fc0291906000818181858888f19350505050158015610a65573d6000803e3d6000fd5b506008546010546040517f86e2ccfbb89118d61004040ebadc692938260eae74726facf02838e9de26b8fd92610aa8926001600160a01b03909116914290612130565b60405180910390a15b7f9d7e11b7ee517fc092f4a904e8eac7b469444955f9a0c9e1cb4644be70b771f633604051610ae0919061211c565b60405180910390a150565b60608060606000610afa611f11565b6004546001805490916002916003916001600160a01b0316906009908590610b2190612a4d565b80601f0160208091040260200160405190810160405280929190818152602001828054610b4d90612a4d565b8015610b9a5780601f10610b6f57610100808354040283529160200191610b9a565b820191906000526020600020905b815481529060010190602001808311610b7d57829003601f168201915b50505050509450838054610bad90612a4d565b80601f0160208091040260200160405190810160405280929190818152602001828054610bd990612a4d565b8015610c265780601f10610bfb57610100808354040283529160200191610c26565b820191906000526020600020905b815481529060010190602001808311610c0957829003601f168201915b50505050509350828054610c3990612a4d565b80601f0160208091040260200160405190810160405280929190818152602001828054610c6590612a4d565b8015610cb25780601f10610c8757610100808354040283529160200191610cb2565b820191906000526020600020905b815481529060010190602001808311610c9557829003601f168201915b5050505050925080604051806060016040529081600082018054610cd590612a4d565b80601f0160208091040260200160405190810160405280929190818152602001828054610d0190612a4d565b8015610d4e5780601f10610d2357610100808354040283529160200191610d4e565b820191906000526020600020905b815481529060010190602001808311610d3157829003601f168201915b50505050508152602001600182018054610d6790612a4d565b80601f0160208091040260200160405190810160405280929190818152602001828054610d9390612a4d565b8015610de05780601f10610db557610100808354040283529160200191610de0565b820191906000526020600020905b815481529060010190602001808311610dc357829003601f168201915b50505050508152602001600282018054610df990612a4d565b80601f0160208091040260200160405190810160405280929190818152602001828054610e2590612a4d565b8015610e725780601f10610e4757610100808354040283529160200191610e72565b820191906000526020600020905b815481529060010190602001808311610e5557829003601f168201915b5050505050815250509050945094509450945094509091929394565b60155460ff1690565b600980548190610ea690612a4d565b80601f0160208091040260200160405190810160405280929190818152602001828054610ed290612a4d565b8015610f1f5780601f10610ef457610100808354040283529160200191610f1f565b820191906000526020600020905b815481529060010190602001808311610f0257829003601f168201915b505050505090806001018054610f3490612a4d565b80601f0160208091040260200160405190810160405280929190818152602001828054610f6090612a4d565b8015610fad5780601f10610f8257610100808354040283529160200191610fad565b820191906000526020600020905b815481529060010190602001808311610f9057829003601f168201915b505050505090806002018054610fc290612a4d565b80601f0160208091040260200160405190810160405280929190818152602001828054610fee90612a4d565b801561103b5780601f106110105761010080835404028352916020019161103b565b820191906000526020600020905b81548152906001019060200180831161101e57829003601f168201915b5050505050905083565b6008546001600160a01b031661106d5760405162461bcd60e51b81526004016105529061282d565b6008546001600160a01b031633146110975760405162461bcd60e51b8152600401610552906127ae565b600160155460ff1660028111156110be57634e487b7160e01b600052602160045260246000fd5b146110db5760405162461bcd60e51b81526004016105529061272e565b60165462010000900460ff16156111045760405162461bcd60e51b8152600401610552906124ee565b6016805462ff000019166201000017905560405133907ff5abecc9b9a13615614d5ae467446c26bc3286bc60464406f779d6826ed46e4890600090a2565b6008546001600160a01b031661116a5760405162461bcd60e51b81526004016105529061282d565b6008546001600160a01b031633146111945760405162461bcd60e51b8152600401610552906127ae565b600160155460ff1660028111156111bb57634e487b7160e01b600052602160045260246000fd5b146111d85760405162461bcd60e51b81526004016105529061272e565b6016546301000000900460ff16156112025760405162461bcd60e51b8152600401610552906127f6565b60105434146112235760405162461bcd60e51b815260040161055290612535565b600454611238906001600160a01b0316611ef0565b6112545760405162461bcd60e51b8152600401610552906125cf565b60185461126490620697806129df565b4211156112835760405162461bcd60e51b8152600401610552906126ea565b6004546040516001600160a01b03909116903480156108fc02916000818181858888f193505050501580156112bc573d6000803e3d6000fd5b506016805463ff000000191663010000001790554260198190556008546040517f86e2ccfbb89118d61004040ebadc692938260eae74726facf02838e9de26b8fd92610877926001600160a01b031691349190612130565b60608060606000611323611f11565b6008546005805490916006916007916001600160a01b031690600c908590610b2190612a4d565b60008062278d00600f60030154426113629190612a36565b61136c91906129f7565b9050600061137d8262278d00612a17565b60125461138a91906129df565b9050611399816207e9006129df565b42119250505090565b601654640100000000900460ff1681565b600060155460ff1660028111156113da57634e487b7160e01b600052602160045260246000fd5b146113f75760405162461bcd60e51b815260040161055290612765565b6113ff611de5565b61141b5760405162461bcd60e51b815260040161055290612859565b6015805460ff19166001179055565b6004546001600160a01b03166114525760405162461bcd60e51b8152600401610552906125a3565b6004546001600160a01b0316331461147c5760405162461bcd60e51b815260040161055290612383565b600160155460ff1660028111156114a357634e487b7160e01b600052602160045260246000fd5b14806114d35750600260155460ff1660028111156114d157634e487b7160e01b600052602160045260246000fd5b145b6114ef5760405162461bcd60e51b81526004016105529061269b565b601283905560138290556115068262015180612a17565b61151090846129df565b60145560115550506015805460ff19166001179055565b61152f611f32565b611537611f32565b61153f611f63565b60016005600f8260405180608001604052908160008201805461156190612a4d565b80601f016020809104026020016040519081016040528092919081815260200182805461158d90612a4d565b80156115da5780601f106115af576101008083540402835291602001916115da565b820191906000526020600020905b8154815290600101906020018083116115bd57829003601f168201915b505050505081526020016001820180546115f390612a4d565b80601f016020809104026020016040519081016040528092919081815260200182805461161f90612a4d565b801561166c5780601f106116415761010080835404028352916020019161166c565b820191906000526020600020905b81548152906001019060200180831161164f57829003601f168201915b5050505050815260200160028201805461168590612a4d565b80601f01602080910402602001604051908101604052809291908181526020018280546116b190612a4d565b80156116fe5780601f106116d3576101008083540402835291602001916116fe565b820191906000526020600020905b8154815290600101906020018083116116e157829003601f168201915b5050509183525050600391909101546001600160a01b0316602090910152604080516080810190915283549194509083908290829061173c90612a4d565b80601f016020809104026020016040519081016040528092919081815260200182805461176890612a4d565b80156117b55780601f1061178a576101008083540402835291602001916117b5565b820191906000526020600020905b81548152906001019060200180831161179857829003601f168201915b505050505081526020016001820180546117ce90612a4d565b80601f01602080910402602001604051908101604052809291908181526020018280546117fa90612a4d565b80156118475780601f1061181c57610100808354040283529160200191611847565b820191906000526020600020905b81548152906001019060200180831161182a57829003601f168201915b5050505050815260200160028201805461186090612a4d565b80601f016020809104026020016040519081016040528092919081815260200182805461188c90612a4d565b80156118d95780601f106118ae576101008083540402835291602001916118d9565b820191906000526020600020905b8154815290600101906020018083116118bc57829003601f168201915b5050509183525050600391909101546001600160a01b03166020909101526040805160e0810190915282549193509082908290829061191790612a4d565b80601f016020809104026020016040519081016040528092919081815260200182805461194390612a4d565b80156119905780601f1061196557610100808354040283529160200191611990565b820191906000526020600020905b81548152906001019060200180831161197357829003601f168201915b50505091835250506001820154602082015260028083015460408301526003830154606083015260048301546080830152600583015460a0830152600683015460c09092019160ff16908111156119f757634e487b7160e01b600052602160045260246000fd5b6002811115611a1657634e487b7160e01b600052602160045260246000fd5b9052509296919550919350915050565b6008546001600160a01b0316611a4e5760405162461bcd60e51b81526004016105529061282d565b6008546001600160a01b03163314611a785760405162461bcd60e51b8152600401610552906127ae565b600160155460ff166002811115611a9f57634e487b7160e01b600052602160045260246000fd5b14611abc5760405162461bcd60e51b81526004016105529061272e565b6011543414611add5760405162461bcd60e51b8152600401610552906124be565b600454611af2906001600160a01b0316611ef0565b611b0e5760405162461bcd60e51b8152600401610552906125cf565b60125460009062278d0090611b239042612a36565b611b2d91906129f7565b90506000611b3e8262278d00612a17565b601254611b4b91906129df565b905080421015611b6d5760405162461bcd60e51b8152600401610552906128af565b6000611b7c826207e9006129df565b600454604051429290921192506001600160a01b0316903480156108fc02916000818181858888f19350505050158015611bba573d6000803e3d6000fd5b506008546040516001600160a01b03909116907fcb70dc11469cd4dc3f0f74e286ee837743a2519cd297bf71a7f39169ad1c8a2a90611bfe903490429086906129c7565b60405180910390a2505050565b601654610100900460ff1681565b600580548190611c2890612a4d565b80601f0160208091040260200160405190810160405280929190818152602001828054611c5490612a4d565b8015611ca15780601f10611c7657610100808354040283529160200191611ca1565b820191906000526020600020905b815481529060010190602001808311611c8457829003601f168201915b505050505090806001018054611cb690612a4d565b80601f0160208091040260200160405190810160405280929190818152602001828054611ce290612a4d565b8015611d2f5780601f10611d0457610100808354040283529160200191611d2f565b820191906000526020600020905b815481529060010190602001808311611d1257829003601f168201915b505050505090806002018054611d4490612a4d565b80601f0160208091040260200160405190810160405280929190818152602001828054611d7090612a4d565b8015611dbd5780601f10611d9257610100808354040283529160200191611dbd565b820191906000526020600020905b815481529060010190602001808311611da057829003601f168201915b505050600390930154919250506001600160a01b031684565b60165460ff1681565b60185481565b60165460009060ff168015611e015750601654610100900460ff165b905090565b600f80548190611e1590612a4d565b80601f0160208091040260200160405190810160405280929190818152602001828054611e4190612a4d565b8015611e8e5780601f10611e6357610100808354040283529160200191611e8e565b820191906000526020600020905b815481529060010190602001808311611e7157829003601f168201915b5050506001840154600285015460038601546004870154600588015460069098015496979396929550909350919060ff1687565b6016546301000000900460ff1681565b600c80548190610ea690612a4d565b600180548190611c2890612a4d565b6000813b6001600160a01b03831615801590611f0a575080155b9392505050565b60405180606001604052806060815260200160608152602001606081525090565b604051806080016040528060608152602001606081526020016060815260200160006001600160a01b031681525090565b6040518060e0016040528060608152602001600081526020016000815260200160008152602001600081526020016000815260200160006002811115611fb957634e487b7160e01b600052602160045260246000fd5b905290565b600060208284031215611fcf578081fd5b81356001600160a01b0381168114611f0a578182fd5b600060208284031215611ff6578081fd5b81358015158114611f0a578182fd5b600060208284031215612016578081fd5b5035919050565b600080600060608486031215612031578182fd5b505081359360208301359350604090920135919050565b6003811061206657634e487b7160e01b600052602160045260246000fd5b9052565b60008151808452815b8181101561208f57602081850181015186830182015201612073565b818111156120a05782602083870101525b50601f01601f19169290920160200192915050565b60008151608084526120ca608085018261206a565b9050602083015184820360208601526120e3828261206a565b915050604083015184820360408601526120fd828261206a565b6060948501516001600160a01b03169590940194909452509092915050565b6001600160a01b0391909116815260200190565b6001600160a01b039390931683526020830191909152604082015260600190565b901515815260200190565b6020810161216a8284612048565b92915050565b600060608252612183606083018661206a565b8281036020840152612195818661206a565b905082810360408401526121a9818561206a565b9695505050505050565b6000608082526121c6608083018761206a565b82810360208401526121d8818761206a565b905082810360408401526121ec818661206a565b91505060018060a01b038316606083015295945050505050565b600060a0825261221960a083018861206a565b828103602084015261222b818861206a565b9050828103604084015261223f818761206a565b905060018060a01b0385166060840152828103608084015283516060825261226a606083018261206a565b905060208501518282036020840152612283828261206a565b9150506040850151828203604084015261229d828261206a565b9a9950505050505050505050565b600060e082526122be60e083018a61206a565b90508760208301528660408301528560608301528460808301528360a08301526122eb60c0830184612048565b98975050505050505050565b60208082526035908201527f52656d61696e696e672062616c616e63652073686f756c64206265207a65726f604082015274103132b337b932903334b730b634bd30ba34b7b71760591b606082015260800190565b6020808252601e908201527f436f6e747261637420697320616c72656164792066696e616c697a65642e0000604082015260600190565b60208082526028908201527f4f6e6c7920746865206c6573736f722063616e20706572666f726d20746869736040820152671030b1ba34b7b71760c11b606082015260800190565b60208082526023908201527f4e6f207465726d696e6174696f6e207265717565737465642062792074656e61604082015262373a1760e91b606082015260800190565b60208082526022908201527f436f6e7472616374206d757374206265207465726d696e6174656420666972736040820152613a1760f11b606082015260800190565b6020808252601e908201527f436f6e747261637420706572696f6420686173206e6f7420656e6465642e0000604082015260600190565b6020808252601a908201527f54656e616e742068617320616c7265616479207369676e65642e000000000000604082015260600190565b60208082526016908201527524b731b7b93932b1ba103932b73a1030b6b7bab73a1760511b604082015260600190565b60208082526027908201527f5465726d696e6174696f6e2068617320616c7265616479206265656e207265716040820152663ab2b9ba32b21760c91b606082015260800190565b60208082526019908201527f496e636f7272656374206465706f73697420616d6f756e742e00000000000000604082015260600190565b6020808252601a908201527f4c6573736f722068617320616c7265616479207369676e65642e000000000000604082015260600190565b6020808252601290820152712632b9b9b7b91034b9903737ba1039b2ba1760711b604082015260600190565b60208082526017908201527f496e76616c6964206c6573736f7220616464726573732e000000000000000000604082015260600190565b60208082526030908201527f52656e74206973206f7665726475652e205465726d696e6174696f6e2063616e60408201526f3737ba1031329030b8383937bb32b21760811b606082015260800190565b60208082526025908201527f5369676e6572206164647265737320646f6573206e6f74206d61746368206c6560408201526439b9b7b91760d91b606082015260800190565b6020808252602f908201527f436f6e7472616374206d75737420626520616374697665206f72207465726d6960408201526e3730ba32b2103a37903932b732bb9760891b606082015260800190565b60208082526024908201527f4465706f736974207061796d656e7420646561646c696e65206861732070617360408201526339b2b21760e11b606082015260800190565b60208082526017908201527f436f6e7472616374206973206e6f74206163746976652e000000000000000000604082015260600190565b60208082526029908201527f436f6e747261637420697320616c726561647920616374697665206f722074656040820152683936b4b730ba32b21760b91b606082015260800190565b60208082526028908201527f4f6e6c79207468652074656e616e742063616e20706572666f726d20746869736040820152671030b1ba34b7b71760c11b606082015260800190565b6020808252601e908201527f4465706f7369742068617320616c7265616479206265656e20706169642e0000604082015260600190565b6020808252601290820152713a32b730b73a1034b9903737ba1039b2ba1760711b604082015260600190565b60208082526036908201527f426f7468207369676e6174757265732061726520726571756972656420746f2060408201527530b1ba34bb30ba32903a34329031b7b73a3930b1ba1760511b606082015260800190565b6020808252601b908201527f4e6f74206475652079657420666f722074686973206d6f6e74682e0000000000604082015260600190565b60208082526025908201527f5369676e6572206164647265737320646f6573206e6f74206d617463682074656040820152643730b73a1760d91b606082015260800190565b60006060825261293e60608301866120b5565b828103602084015261295081866120b5565b90508281036040840152835160e0825261296d60e083018261206a565b90506020850151602083015260408501516040830152606085015160608301526080850151608083015260a085015160a083015260c08501516129b360c0840182612048565b509695505050505050565b90815260200190565b92835260208301919091521515604082015260600190565b600082198211156129f2576129f2612a88565b500190565b600082612a1257634e487b7160e01b81526012600452602481fd5b500490565b6000816000190483118215151615612a3157612a31612a88565b500290565b600082821015612a4857612a48612a88565b500390565b600281046001821680612a6157607f821691505b60208210811415612a8257634e487b7160e01b600052602260045260246000fd5b50919050565b634e487b7160e01b600052601160045260246000fdfea2646970667358221220bc88e69ee07fa8e1312fa72586391ee9835b69294f4887cbbd3d9f1ab139c51264736f6c63430008000033",
  "immutableReferences": {},
  "source": "// SPDX-License-Identifier: MIT  \r\npragma solidity ^0.8.0;\r\n\r\ncontract SmartContract {\r\n\r\n    struct Person {\r\n        string name;           //  - ID\r\n        string phoneNumber;    //  \r\n        string identityNumber; //  \r\n        address addr;          //   \r\n    }\r\n\r\n    struct BankDetails {\r\n        string ownerName;   // \r\n        string bankName;    // \r\n        string account;     // \r\n    }\r\n\r\n    struct RentalDetails {\r\n        string houseID;         //  ID \r\n        uint deposit;           // \r\n        uint cost;              // \r\n        uint startDate;         //   , Unix  \r\n        uint period;            //  \r\n        uint endDate;           //   ,   \r\n        ContractStatus status;  //      \r\n    }\r\n\r\n    // Pending :   , Active :     , Terminated :    \r\n    enum ContractStatus { Pending, Active, Terminated }\r\n    ContractStatus public status;\r\n    \r\n    Person public lessor;                   // \r\n    Person public tenant;                   // \r\n    BankDetails public lessorBankDetails;   //    \r\n    BankDetails public tenantBankDetails;   //   \r\n    RentalDetails public rentalDetails;     //  \r\n\r\n    bool public lessorSigned;\r\n    bool public tenantSigned;\r\n\r\n    bool public terminationRequestedByTenant;\r\n    bool public depositPaid;\r\n    bool public isFinalized; \r\n\r\n    //   :         \r\n    event PersonInfo(\r\n        string name, string phoneNumber\r\n    );\r\n\r\n    event BankInfo(\r\n        string bankName, string account, string personType\r\n    );\r\n\r\n    event RentalInfo(\r\n        string houseID, uint deposit, uint cost, uint startDate, uint period, uint endDate\r\n    );\r\n\r\n    //      \r\n    event DepositPaid(\r\n        address tenant, uint amount, uint paymentDate \r\n    );\r\n\r\n    //    \r\n    event RentPaid(\r\n        address indexed tenant, uint amount, uint paymentDate, bool isLate\r\n    );\r\n\r\n    event ContractFinalized(address by);\r\n    event ContractTerminated(address by);\r\n\r\n    //      \r\n    event TerminationRequestedByTenant(address indexed tenant);\r\n\r\n    //      \r\n    mapping(address => bool) public isBankAccountLinked;\r\n\r\n    //  : , ,  ,  ,        \r\n    constructor(\r\n        Person memory _lessor,\r\n        Person memory _tenant,\r\n        BankDetails memory _lessorBankDetails,\r\n        BankDetails memory _tenantBankDetails,\r\n        RentalDetails memory _rentalDetails\r\n    ) {\r\n        lessor = _lessor;\r\n        tenant = _tenant;\r\n        lessorBankDetails = _lessorBankDetails;\r\n        tenantBankDetails = _tenantBankDetails; \r\n        rentalDetails = _rentalDetails;\r\n    }\r\n\r\n    //  :      \r\n    function setContractSignedDate(uint _contractSignedDate) public onlyLessor {\r\n        contractSignedDate = _contractSignedDate;\r\n    }\r\n\r\n    //  :    \r\n    function setEndDate(uint _endDate) public onlyLessor {\r\n        rentalDetails.endDate = _endDate;\r\n    }\r\n\r\n    //  :    \r\n    function setEndDate2(uint newEndDate) public onlyLessor {\r\n        rentalDetails.endDate = newEndDate;\r\n    }\r\n\r\n    // ContractStatus    \r\n    function getStatus() public view returns (ContractStatus) {\r\n        return rentalDetails.status;\r\n    }\r\n\r\n\r\n\r\n\r\n    //  \r\n    modifier onlyLessor() {\r\n        require(lessor.addr != address(0), \"Lessor is not set.\");\r\n        require(msg.sender == lessor.addr, \"Only the lessor can perform this action.\");\r\n        _;\r\n    }\r\n\r\n    modifier onlyTenant() {\r\n        require(tenant.addr != address(0), \"tenant is not set.\");\r\n        require(msg.sender == tenant.addr, \"Only the tenant can perform this action.\");\r\n        _;\r\n    }\r\n\r\n    //       :         \r\n    modifier bothAccountLinked() {\r\n        require(isBankAccountLinked[lessor.addr], \"Lessor's bank account is not linked.\");\r\n        require(isBankAccountLinked[tenant.addr], \"Tenant's bank account is not linked.\");\r\n        _;\r\n    }\r\n\r\n    uint256 public contractSignedDate;   //   \r\n    uint256 public depositPaymentDate;  //    \r\n\r\n    //   \r\n    function signContractByTenant(address signer) public onlyTenant {\r\n        require(signer == tenant.addr, \"Signer address does not match tenant.\");\r\n        require(!tenantSigned, \"Tenant has already signed.\");\r\n\r\n        tenantSigned = true;\r\n    }\r\n\r\n    //   \r\n    function signContractByLessor(address signer) public onlyLessor {\r\n        require(signer == lessor.addr, \"Signer address does not match lessor.\");\r\n        require(!lessorSigned, \"Lessor has already signed.\");\r\n\r\n        lessorSigned = true;\r\n    }\r\n\r\n    //    \r\n    function isContractFullySigned() public view returns (bool) {\r\n        return lessorSigned && tenantSigned;\r\n    }\r\n\r\n    //  \r\n    function activateContract() public {\r\n        require(rentalDetails.status == ContractStatus.Pending, \"Contract is already active or terminated.\");\r\n        require(isContractFullySigned(), \"Both signatures are required to activate the contract.\");\r\n\r\n        rentalDetails.status = ContractStatus.Active;\r\n    }\r\n\r\n    //   \r\n    //     \r\n    function getContractDetails() public view returns (\r\n        Person memory,\r\n        Person memory,\r\n        RentalDetails memory\r\n    ) {\r\n        return (lessor, tenant, rentalDetails);\r\n    }\r\n\r\n    //   \r\n    function getLessorInfo() public view returns (\r\n        string memory, string memory, string memory, address, BankDetails memory\r\n    ) {\r\n        return (\r\n            lessor.name, lessor.phoneNumber, lessor.identityNumber, lessor.addr, lessorBankDetails \r\n        );\r\n    }\r\n\r\n    //   \r\n    function getTenantInfo() public view returns (\r\n        string memory, string memory, string memory, address, BankDetails memory\r\n    ) {\r\n        return (\r\n            tenant.name, tenant.phoneNumber, tenant.identityNumber, tenant.addr, tenantBankDetails\r\n        );\r\n    }\r\n\r\n    // ---\r\n    //       \r\n    //       \r\n    function requestTermination() public onlyTenant {\r\n        require(rentalDetails.status == ContractStatus.Active, \"Contract is not active.\");\r\n        require(!terminationRequestedByTenant, \"Termination has already been requested.\");\r\n\r\n        terminationRequestedByTenant = true;\r\n\r\n        emit TerminationRequestedByTenant(msg.sender);\r\n    }\r\n\r\n    //   +   \r\n    function approveTermination(bool agreementReached) public onlyLessor {\r\n        require(terminationRequestedByTenant, \"No termination requested by tenant.\");\r\n        require(rentalDetails.status == ContractStatus.Active, \"Contract is not active.\");\r\n        require(block.timestamp > rentalDetails.endDate, \"Contract period has not ended.\");\r\n        require(agreementReached || !isRentLate(), \"Rent is overdue. Termination cannot be approved.\");\r\n\r\n        //       \r\n        rentalDetails.status = ContractStatus.Terminated;\r\n\r\n        //     \r\n        terminationRequestedByTenant = false;\r\n\r\n        //       \r\n        if (!isRentLate() && agreementReached) {\r\n            payable(tenant.addr).transfer(rentalDetails.deposit);\r\n\r\n            emit DepositPaid(tenant.addr, rentalDetails.deposit, block.timestamp);\r\n        } \r\n\r\n        //  \r\n        emit ContractTerminated(msg.sender);\r\n    }\r\n    // ---\r\n\r\n    //         \r\n    function isValidAddress(address addr) private view returns (bool) {\r\n        uint256 size;\r\n        assembly {\r\n            size := extcodesize(addr)\r\n        }\r\n        return addr != address(0) && size == 0;       //  address(0) ,           \r\n    }\r\n\r\n    //   \r\n    //        \r\n    function payDeposit() public payable onlyTenant {\r\n        require(rentalDetails.status == ContractStatus.Active, \"Contract is not active.\");\r\n        require(!depositPaid, \"Deposit has already been paid.\");                            //   \r\n        require(msg.value == rentalDetails.deposit, \"Incorrect deposit amount.\");           //   \r\n\r\n        //   :     \r\n        require(isValidAddress(lessor.addr), \"Invalid lessor address.\");\r\n\r\n        //    5    \r\n        require(block.timestamp <= contractSignedDate + 5 days, \"Deposit payment deadline has passed.\");\r\n\r\n        //    \r\n        payable(lessor.addr).transfer(msg.value);\r\n\r\n        depositPaid = true;                     //   \r\n        depositPaymentDate = block.timestamp;   //    \r\n\r\n        emit DepositPaid(\r\n            tenant.addr, msg.value, block.timestamp\r\n        );\r\n    }\r\n\r\n    //    ->       +          \r\n    function payRent() public payable onlyTenant {\r\n        require(rentalDetails.status == ContractStatus.Active, \"Contract is not active.\");\r\n        require(msg.value == rentalDetails.cost, \"Incorrect rent amount.\");\r\n        require(isValidAddress(lessor.addr), \"Invalid lessor address.\");\r\n\r\n        // 1(30)     \r\n        uint256 monthsElapsed = (block.timestamp - rentalDetails.startDate) / 30 days;\r\n        uint256 paymentDueDate = rentalDetails.startDate + monthsElapsed * 30 days;\r\n\r\n        //        \r\n        require(block.timestamp >= paymentDueDate, \"Not due yet for this month.\");\r\n\r\n        //    :   5    \r\n        bool latePayment = block.timestamp > paymentDueDate + 6 days;\r\n\r\n        //   \r\n        payable(lessor.addr).transfer(msg.value);\r\n\r\n        emit RentPaid(\r\n            tenant.addr, msg.value, block.timestamp, latePayment\r\n        );\r\n    }\r\n\r\n    //    \r\n    function isRentLate() public view returns (bool) {\r\n        uint256 monthsElapsed = (block.timestamp - rentalDetails.startDate) / 30 days;\r\n        uint256 nextPaymentDue = rentalDetails.startDate + monthsElapsed * 30 days;\r\n\r\n        //   5   \r\n        return block.timestamp > nextPaymentDue + 6 days; \r\n    }\r\n\r\n    //    \r\n    function renewContract(uint _newStartDate, uint _newPeriod, uint _newRent) public onlyLessor {\r\n        require(rentalDetails.status == ContractStatus.Active || rentalDetails.status == ContractStatus.Terminated, \"Contract must be active or terminated to renew.\");\r\n        rentalDetails.startDate = _newStartDate;\r\n        rentalDetails.period = _newPeriod;\r\n        rentalDetails.endDate = _newStartDate + (_newPeriod * 1 days);\r\n        rentalDetails.cost = _newRent;\r\n        rentalDetails.status = ContractStatus.Active;\r\n    }\r\n\r\n    //   ->    \r\n    function finalizeContract() public onlyLessor {\r\n        require(rentalDetails.status == ContractStatus.Terminated, \"Contract must be terminated first.\");\r\n        require(!isFinalized, \"Contract is already finalized.\");        //       \r\n\r\n        isFinalized = true;     //    \r\n        \r\n        //    \r\n        if (address(this).balance > 0) {\r\n            payable(lessor.addr).transfer(address(this).balance);\r\n        }\r\n\r\n        //  0 \r\n        require(address(this).balance == 0, \"Remaining balance should be zero before finalization.\");  \r\n\r\n        emit ContractFinalized(msg.sender); \r\n    }\r\n}\r\n",
  "sourcePath": "C:\\Users\\\\OneDrive\\\\GitHub\\FinalProject\\smart_contract\\contracts\\SmartContract.sol",
  "compiler": {
    "name": "solc",
    "version": "0.8.0+commit.c7dfd78e.Emscripten.clang"
  },
  "schemaVersion": "3.4.16",
  "updatedAt": "2024-11-26T11:02:13.593Z",
  "networkType": "ethereum",
  "devdoc": {
    "kind": "dev",
    "methods": {},
    "version": 1
  },
  "userdoc": {
    "kind": "user",
    "methods": {},
    "version": 1
  }
}